:10000000987A0020ED730100E5740100E5740100A9
:1000100000000000000000000000000000000000E0
:100020000000000000000000000000007D650000EE
:100030000000000000000000A1660000E96600006A
:10004000E5740100E5740100E57401003D3501002F
:10005000692A0100E57401004D070000E574010004
:1000600091080000E13B0100F93B0100113C010057
:10007000293C0100413C0100593C0100357301005D
:10008000497301005D730100694200007D42000078
:10009000914200000000000000000000D5050000B3
:1000A000E574010011070000E5740100E57401002A
:1000B0000000000010B5064C2378002B07D1054B3B
:1000C000002B02D0044800E000BF0123237010BDC4
:1000D000F00200200000000094730200084B10B5ED
:1000E000002B03D00749084800E000BF0748036819
:1000F000002B00D110BD064B002BFBD09847F9E731
:1001000000000000F40200209473020094730200C7
:100110000000000080B586B000AF0200FB1D1A7021
:100120000823FB183D221A700823FB18FA1D5A6099
:100130000823FB1800229A600823FB1800229A81EA
:100140000823FB180122DA81114B1800114B984744
:1001500001235B421800104B9847031E10D1012366
:100160005A420823FB18110018000C4B9847031E35
:1001700003D00B4B1800074B98470A4B984703E0F6
:10018000094B1800034B9847C046BD4606B080BDDA
:100190006821020089A20000891C0000191D0000CE
:1001A00088210200511C0000AC21020080B500AF84
:1001B000084B1800084B9847AE20084B9847AF20D3
:1001C000064B9847064B01225A7101231800BD4681
:1001D00080BDC046D821020089A2000015010000A0
:1001E0000C07002080B586B000AF2B4B18002B4BBE
:1001F00098471723FB1800221A7043E01723FB18B7
:100200001B78503BDBB21800254B98470020244B4D
:1002100098471020224B98473B1D3D221A70172308
:10022000FB181B78DA011F4BD2183B1D5A603B1D8F
:1002300000229A603B1D00229A813B1D8022DA81B8
:1002400001235B421800184B9847031E0FD101236E
:100250005A423B1D11001800144B9847031E03D04F
:10026000134B18000D4B9847124B984703E0124B65
:1002700018000A4B98471723FB181A781723FB1806
:1002800001321A701723FB181B78072BB6D9C0460A
:10029000BD4606B080BDC046F021020089A2000024
:1002A000150100000C030020891C0000191D00002E
:1002B0000C220200511C00002C22020080B582B0EA
:1002C00000AF0200FB1D1A70FB1D1B78002B01D133
:1002D000002100E0FF218023DA00064B1800064BC6
:1002E0009847064B1800064B9847C046BD4602B0DB
:1002F00080BDC0460C0300208B0D02005822020076
:1003000089A2000080B582B000AF0200BB1D1A8038
:100310003B1D0A1C1A800E4B18000E4B9847BB1D44
:100320001B887F2B03D83B1D1B883F2B04D90A4B0E
:100330001800084B984707E0084BBA1D12881A802E
:10034000064B3A1D12885A80BD4602B080BDC04699
:100350007022020089A200008C2202000C070020FB
:1003600080B582B000AF39601100FB1D021C1A700D
:10037000BB1D0A1C1A70054B1800054B9847FB1D46
:100380001B781800BD4602B080BDC046B4220200F2
:1003900089A2000080B584B000AFF860B960FB1D91
:1003A0001A70134B1800134B984717E0FB68187826
:1003B000FB1D1A78BB6819000F4B984703001A0001
:1003C000FB681B789A4206D00C4B1800094B9847E3
:1003D000FB681B7807E0FB680133FB60FB681B7858
:1003E000002BE3D100231800BD4604B080BDC046F9
:1003F000D422020089A2000061030000F022020062
:1004000080B584B000AF78607B681B68FB60FB68D8
:100410005B7EDBB25BB2002B01DA012300E000233C
:100420001800BD4604B080BD80B584B000AF7860D0
:100430007B681B68FB60C0467B6818000B4B9847C5
:10044000031EF9D1FB681B7BDBB202221343DAB235
:10045000FB681A73C0467B681800044B9847031E5C
:10046000F9D1C046BD4604B080BDC04601040000BD
:1004700080B584B000AF78600A00FB1C1A707B68FE
:100480001B68FB60FB68FA1C12789A75C046BD4673
:1004900004B080BD80B584B000AF0200FB1D1A70AF
:1004A000FB1D1A78474B9200D358FB60FB681B6812
:1004B0001B7EDAB2FB681B68DB7DDBB21340DBB26C
:1004C000BB60BB680122134045D0FB681B6801225A
:1004D0001A76C046FB6818003B4B9847031EF9D1BB
:1004E000FB685B69991CFA685161FA681268528B63
:1004F00092B21A80FB681B8B9BB2013B9BB2FA68DD
:10050000191C1183002B08D0FB685B7F002B22D0C5
:10051000FB6818002D4B98471DE0FB68012118006F
:100520002B4B9847FB681B7FDBB2052B13D1FB6875
:1005300000221A77FB68DB7E1A00012313400AD0E1
:10054000FB689B7E1A000123134004D0FB689B6864
:10055000FA6810009847BB680422134014D0FB6867
:100560001B6804221A76FB68DB7E1A000223134004
:100570000AD0FB689B7E1A000223134004D0FB685C
:10058000DB68FA6810009847BB680222134014D059
:10059000FB681B6802221A76FB68DB7E1A000423C4
:1005A00013400AD0FB689B7E1A000423134004D03A
:1005B000FB681B69FA6810009847C046BD4604B046
:1005C00080BDC046AC4500200104000029040000A5
:1005D0007104000080B500AF0020024B9847C04670
:1005E000BD4680BD9504000080B582B000AF02001A
:1005F000FB1D1A70074AFB1D1B7819001F230B40B7
:10060000012199400B0019008023D150C046BD46FE
:1006100002B080BD00E100E080B584B000AF020010
:10062000FB1D1A70FB1D1A78374B9200D358FB60E4
:10063000FB681B68BB60BB689B79DBB21A000123B7
:1006400013400ED0BB6801229A71FB681433002B53
:1006500007D0FB685B7C002B03D0FB689B69002004
:100660009847BB689B79DBB21A000223134047D03E
:10067000BB6802229A71FB689B899BB2002B33D026
:10068000FB689A68FB68DB899BB2591C88B2F968E1
:10069000C8815B00D3181B889AB2BB689A81FB683B
:1006A0009B899BB2013B9AB2FB689A81FB689B894C
:1006B0009BB2002B18D1FB68202200219954BB6803
:1006C00002221A71BB6802229A7119200F4B9847B7
:1006D000FB681433002B07D0FB689B7C002B03D0F6
:1006E000FB68DB6900209847FB681433002B07D0B8
:1006F000FB681B7C002B03D0FB685B6900209847DC
:10070000C046BD4604B080BDB0450020E9050000EC
:1007100080B500AF0020024B9847C046BD4680BD63
:100720001906000080B500AF024B9847C046BD4691
:1007300080BDC046C926010080B500AF024B984776
:10074000C046BD4680BDC0461D27010080B586B0AD
:1007500000AF494B9847494B1B8C9BB2DAB2172329
:10076000FB180F210A401A701723FB181A78444B04
:100770009200D3583B61414A3B691B780F210B40E3
:10078000D9B23F23D1543D490F23FB184E228A5C36
:100790001A703B691B783B4A1B01D31802331B8834
:1007A0009BB2BB603B691B78374A1B01D3180233ED
:1007B0001B889BB27B60BA687B68D21A3B695A611E
:1007C0000F23FB181B780122134016D02B4A4E230F
:1007D0000121D1543B6910225A743B691B7C1A00D9
:1007E0000123134042D03B695B68002B3ED03B693C
:1007F0005B683A691000984738E00F23FB181B78B4
:100800000222134016D01D4A4E230221D1543B69C7
:1008100000225A743B691B7C1A000223134025D026
:100820003B699B68002B21D03B699B683A691000AB
:1008300098471BE00F23FB181B780422134015D0A8
:100840000E4A4E230421D1543B6906225A743B6957
:100850001B7C1A000423134008D03B69DB68002B83
:1008600004D03B69DB683A6910009847074B98470A
:10087000C046BD4606B080BD2507000000480041C7
:1008800070070020C0450020200700203907000025
:1008900080B582B000AF154B1B697B60144B9B6920
:1008A0003B60124B9A683B681A43104B9A60104B9E
:1008B000104A9A6108E07B685A687B681B681800D8
:1008C00090477B689B687B607B68002BF3D1074B6C
:1008D000DB683B60054B9B683A68D2431A40034B88
:1008E0009A60C046BD4602B080BDC04600000020F0
:1008F00000040042FFFF0F0F80B582B000AF02007E
:100900003960FB1D1A70FB1D1B78012B0AD0022BCE
:100910000FD0002B14D10E4B0D4A91693A680A434F
:100920009A610FE00A4B0A4AD1693A680A43DA61D0
:1009300008E0074B064A116A3A680A431A6201E066
:10094000172300E000231800BD4602B080BDC0465A
:100950000004004080B500AF02210220074B9847F9
:10096000074B01221A70C046054B1B78DBB21A00F8
:1009700001231340F8D1C046BD4680BDF9080000F0
:100980000004004280B584B000AF78607B681B68CB
:10099000FB60FB68DB69072213405A1E9341DBB200
:1009A0001800BD4604B080BD80B582B000AF78604D
:1009B000C0467B681800044B9847031EF9D1C04617
:1009C000BD4602B080BDC0468509000080B584B038
:1009D00000AF78607B681B68FB60FB681B681B01CD
:1009E000DB0FDBB21A000B23FB18511E8A411A7071
:1009F0000823FB187A68528B1A807B689B8B9AB20B
:100A00000823FB180821791809888A1A1A807B683C
:100A10009B8B9BB2013B9AB27B689A830B23FB189A
:100A20001B78002B10D07B68DB7A002B1CD07B68F6
:100A30009B8B9BB2012B17D1FB685B688022D20293
:100A40001A43FB685A600FE07B68DB7A002B0BD0FF
:100A50007B689B8B9BB2002B06D1FB685B68802276
:100A6000D2021A43FB685A607B689B8B9BB2002BB7
:100A70000ED17B689B7A002B0AD07B6818000E4B46
:100A80009847FB685B68C02292021A43FB685A6071
:100A90007B681800084B98477B681A6A0823FB1884
:100AA0001B88D318FA682821525CD2B21A70C0464B
:100AB000BD4604B080BDC046A909000080B584B021
:100AC00000AF78607B681B68FB60FB685B8B9BB248
:100AD0001A000423134004D07B6825221E21995458
:100AE00024E00A23FB187A68528B1A807B689B8B60
:100AF0009AB20A23FB180A21791809888A1A1A80DF
:100B00007B689B8B9BB2013B9AB27B689A837B6824
:100B10001800084B98477B681A6A0A23FB181B8841
:100B2000D3181B78D9B2FB6828229954BD4604B06B
:100B300080BDC046A909000080B584B000AF7860D0
:100B40007B681B68FB60FB681B7EDBB21A0001231D
:100B500013402BD0FB6801221A76FB685B8B9BB29B
:100B60001A000223134004D07B68252241219954A6
:100B70001CE0FB685B8B9BB21A000423134015D06A
:100B80007B682522182199547B6800229A837B6810
:100B90009B7A002B0AD07B681800134B9847FB68A0
:100BA0005B68C02292021A43FB685A607B689B8B89
:100BB0009AB27B685A837B6825229B5CDBB2052B4B
:100BC0000ED17B6824229B5CDBB2002B04D17B68B6
:100BD0001800064B984703E07B681800044B9847C1
:100BE000C046BD4604B080BDA9090000BD0A000092
:100BF000CD09000080B584B000AFF860B960FB1D7E
:100C00001A70FB1D1B78FA6802339B00D31804335B
:100C1000BA681A60FB681B7EDBB25AB2FB1D1B78F8
:100C2000012199400B005BB213435BB2DAB2FB685F
:100C30001A76C046BD4604B080BD000090B587B0AE
:100C400000AF786039607B681B683B613B685A681D
:100C50007B681A623B685A887B689A837B68242287
:100C6000012199547B682522052199543B691B6811
:100C70001B01DB0FDBB21A000F23FB18511E8A4148
:100C80001A703B685B7A002B06D03B689A7A7B68C7
:100C9000110018003B4B98470F23FB181B78002BC3
:100CA0000BD03B685B88012B07D13B695B688022D6
:100CB000D2021A433B695A6005E03B695B68324ADD
:100CC0001A403B695A603B681B7A002B45D03B6851
:100CD0001B885A003B685B7A9B0313431A008023EE
:100CE0001B021A433B695A621723FC187B681800E1
:100CF000264B9847030023703B695B68224A1A40E1
:100D00003B695A601723FB181B78002B07D1172368
:100D1000FC187B6818001E4B9847030023701723AC
:100D2000FB181B78002B14D13B6903229A753B6892
:100D30001B881B0A9BB2782213439BB25A003B6864
:100D40005B7A9B031343012213431A003B695A62E7
:100D500012E01723FB181B780FE03B6903229A75FA
:100D60003B681B885B0001221A433B685B7A9B034C
:100D700013431A003B695A6200231800BD4607B0AE
:100D800090BDC04615420000FFFFFBFFB7410000C9
:100D90005941000080B582B000AF786039607B684F
:100DA0009B8B9BB2002B01D005230CE07B680122BA
:100DB0009A727B680122DA723A687B681100180027
:100DC000034B984703001800BD4602B080BDC046E3
:100DD0003D0C000080B584B000AF786039607B685E
:100DE0001B68FB603B685B7A002B06D03B689A7AF5
:100DF0007B68110018001E4B9847FB685B681D4A12
:100E00001A40FB685A603B685A687B681A623B6804
:100E10005A887B689A837B682422002199547B68D6
:100E2000252205219954FB6803229A753B681B7A99
:100E3000002B0DD03B681B885A003B685B7A9B03F4
:100E400013431A0080231B021A43FB685A6209E00D
:100E50003B681B885A003B685B7A9B0313431A006C
:100E6000FB685A6200231800BD4604B080BDC0462E
:100E700015420000FFFFFBFF80B582B000AF786035
:100E800039607B689B8B9BB2002B01D005230CE063
:100E90007B6801229A727B680122DA723A687B6869
:100EA00011001800034B984703001800BD4602B01C
:100EB00080BDC046D50D000080B586B000AF0200F1
:100EC000FB1D1A70FB1D1A78934B9200D3587B615F
:100ED0007B691B683B613B691B681B01DB0FDBB255
:100EE0001A000F23FB18511E8A411A700E23FB189B
:100EF0007A69527E1A707B691B7EDAB20E23FB1868
:100F00000E21791809780A401A707B695B8B9BB2B5
:100F1000002B09D17B699B8B9BB2002B04D07B6992
:100F200018007E4B984770E07B695B8B9BB2002B6F
:100F300039D07B699B8B9BB2002B34D17B692522F6
:100F40009B5CDBB2052B2ED17B6924229B5CDBB240
:100F5000002B28D13B6903221A757B6900225A8332
:100F60007B692522002199547B699B7A002B0BD049
:100F70007B6918006A4B98473B695B68C022920204
:100F80001A433B695A6002E03B6901221A760E233C
:100F9000FB181B780122134037D07B69DB687A6924
:100FA0001000984731E07B695B8B9BB2002B2CD003
:100FB0007B699B8B9BB2002B27D03B695B8B9BB2E1
:100FC0001A002023134011D10F23FB181B78012294
:100FD0005340DBB2002B04D17B699B8B9BB2012B6E
:100FE00004D07B692522412199540EE07B6924229B
:100FF0009B5CDBB2002B04D17B691800494B9847FE
:1010000003E07B691800484B98477B695B8B9BB278
:10101000002B47D07B699B8B9BB2002B42D17B6915
:1010200025229B5CDBB2052B3CD17B6924229B5C97
:10103000DBB2012B36D13B691B7EDBB21A000223E7
:10104000134002D03B6902221A763B6903221A75CB
:101050007B6900225A837B692522002199540E2343
:10106000FB181B78022213400BD07B6924229B5C67
:10107000DBB2012B05D17B691B697A6910009847A7
:1010800010E00E23FB181B78012213400AD07B6965
:1010900024229B5CDBB2002B04D17B69DB687A697C
:1010A000100098477B6925229B5CDBB2052B2ED074
:1010B0007B6925229B5CDBB2002B28D03B69032295
:1010C0001A757B6900225A837B6900229A837B69A7
:1010D00025229B5CDBB2412B0ED07B699B7A002BD7
:1010E0000AD07B6918000E4B98473B695B68E02289
:1010F000D2021A433B695A600E23FB181B78042264
:10110000134004D07B695B697A6910009847C04638
:10111000BD4606B080BDC0460C5A0020390B000009
:10112000A9090000BD0A0000CD09000080B500AF8C
:10113000BFF34F8F024B034ADA60BFF34F8FFEE7D6
:1011400000ED00E00400FA0580B500AF024B9847BF
:10115000C046BD4680BDC0462D11000080B586B09A
:1011600000AF7860984B1800984B9847984B180040
:10117000964B9847974B1800944B9847964B1800FE
:10118000924B9847954B1800904B9847944B1800FA
:101190008E4B98471723FB1800221A70914B1800AA
:1011A000914B9847032200210120904B9847020061
:1011B0008F4B1A608E4B1B68002B07D18D4B19008B
:1011C00003208D4B984700208C4B98470C23FB182D
:1011D00018008B4B98470C23FB181B780A2B04D064
:1011E0000C23FB181B780D2B37D1864B18007E4B38
:1011F0009847854B00221A70844B00221A7084494C
:10120000844B31221800844B9847824B31220021B5
:10121000995482497E4B64221800814B9847030001
:101220003B617E4B6322002199547C4B18006E4B2E
:1012300098473B69002BECD11723FB1800221A704A
:10124000734B322200211800764B9847734B64226F
:1012500000211800734B9847B5E06B4B1B78002BAF
:1012600059D06A4B1B78032B0CD8684B1B785A1C3F
:10127000D1B2664A11701A000C23FB1819786A4B18
:10128000995405E0604B00221A70604B00221A70DE
:101290005E4B1B78012B99D9644A634B11001800EF
:1012A000634B9847031E2FD06249594B1B221800ED
:1012B000614B9847564B18004B4B98471723FB1828
:1012C00000221A70524B322200211800554B9847C9
:1012D00050494F4B312218004F4B98474C4B180048
:1012E000564B98470300302B06D84A4B1800534BF7
:1012F00098470300DAB200E031221723FB181A7076
:10130000434B1800384B98473F4B00221A703F4B15
:1013100000221A705AE70C23FB181B780D2B00D102
:1013200054E70C23FB181B78082B04D00C23FB1864
:101330001B787F2B1CD10823FB18414A12681A60C6
:101340000823FB181800284B98471723FB181B7815
:10135000002B37D01723FB181A781723FB18013AF4
:101360001A701723FB181B78294A0021D15429E051
:101370000C23FB181B781B2B06D1234B01221A7060
:10138000224B00221A7021E71723FB181B78312B00
:101390000ED81723FB181B780C22BA1811781C4A98
:1013A000D1541723FB181A781723FB1801321A702F
:1013B0000C23FB1800225A700C23FB1818000A4B50
:1013C000984703E7C04601E7382502005D43000067
:1013D00088250200482502005825020068250200E1
:1013E000782502000C23020089A200002969000070
:1013F000104600206824020075A300001587000035
:10140000451400008824020094070020950700205E
:10141000CC0700209807002073110200000800206C
:10142000CD4300008B0D0200640800208C240200D4
:101430008D100200902402004910020043110200A6
:101440009824020080B582B000AF7860094B1A681A
:1014500001235B4219001000074B98470300012B42
:1014600003D17B681800054B9847C046BD4602B0C3
:1014700080BDC04610460020E178000025A3000092
:1014800080B500AF0A4B00221A600A4B1B68084A5D
:1014900011001800084B9847054B1B68002B03D020
:1014A000064B802252051A60C046BD4680BDC0462C
:1014B00068080020104600205972000004ED00E08A
:1014C00090B587B000AFF860B9607A601723FB1859
:1014D0001B221A701723FB181B78084A08480F2193
:1014E000084CA047064AB968FB681800054B9847A6
:1014F00000231800BD4607B090BDC0469C240200E2
:1015000084070020E50F020080B584B000AFF860CA
:10151000B9607A600220034B984700231800BD464B
:1015200004B080BDC539000080B584B000AFF8605C
:10153000B9607A60034B984700231800BD4604B099
:1015400080BDC0464911000080B584B000AFF8608E
:10155000B9607A60084B1800084B9847084B180090
:10156000064B9847074B1800044B98470023180078
:10157000BD4604B080BDC046A424020089A200007C
:10158000B8240200C424020080B586B000AFF86021
:10159000B9607A600B4B984703007B610A4B1800D7
:1015A0000A4B98477A690A490A4B18000A4B984730
:1015B000084B1800054B984700231800BD4606B09D
:1015C00080BDC0467D8A0000CC24020089A20000B4
:1015D000F0240200840700204910020090B58FB06B
:1015E00000AFF860B9607A601823FB1800221A7007
:1015F0001823FB1800225A701823FB1800221A70B7
:101600001823FB1800225A701C23FB1800221A70A2
:101610001C23FB181422BA189A601C23FB18012201
:10162000DA811C23FB181822BA185A601C23FB18F5
:1016300001229A812C4B18002C4B984700237B6386
:1016400046E07B6B2A4A2B480F212B4CA047294BA5
:101650001800264B984700233B632FE07B6BDAB2E0
:101660003B6BDBB2D318DBB2DB18DAB21C23FB18FE
:101670001A701C23FB1864211800204B98470300A4
:10168000FB62FB6A002B0CD11C23FB181B78184A49
:1016900018480F21184CA047164B1800134B9847B9
:1016A00009E0144B164A1188198092789A70114BF0
:1016B00018000E4B98473B6B01333B633B6B0F2B82
:1016C000CCDD104B1800094B98477B6B10337B63C4
:1016D0007B6B7F2BB5DD0B4B1800044B9847002329
:1016E0001800BD460FB090BDF824020089A200008A
:1016F0002C25020084070020E50F0200191D0000C0
:10170000342502008824020080B582B000AF0200B8
:10171000FB1D1A70064BFA1D127811001F220A4099
:10172000012191400A001A60C046BD4602B080BD4A
:1017300000E100E080B584B000AF78607B681B6892
:10174000FB60FB68DB69072213405A1E9341DBB242
:101750001800BD4604B080BD80B582B000AF78608F
:10176000C0467B681800044B9847031EF9D1C04659
:10177000BD4602B080BDC0463517000080B582B0BE
:1017800000AF78607B6864221A607B681B4A5A60ED
:101790007B6800229A607B6800221A737B680022B3
:1017A0001A767B68802292031A617B68012252427A
:1017B000DA827B68012252429A827B680022DA61D7
:1017C0007B6800221A627B682422002199547B687E
:1017D00000229A627B682C22002199547B682D227A
:1017E000002199547B682E22002199547B68D722CE
:1017F0001A86C046BD4602B080BDC046480D0000F6
:1018000080B584B000AF78607B681B68BB60002344
:10181000FB607B681800144B9847BB681B6802226A
:101820001A43BB681A607B681B6818000F4B984707
:10183000030018000E4B98470CE0FB680133FB6077
:101840007B68DB881A00FB689A4203D8BB681022C9
:101850005A8306E0BB685B8B9BB21A0010231340CF
:10186000EBD0BD4604B080BD591700009D3B010080
:101870000917000080B582B000AF78600A00FB1C39
:101880001A707B685B7EDBB25AB2FB1C1B780121AD
:1018900099400B005BB213435BB2DAB27B685A76B5
:1018A000C046BD4602B080BD90B591B000AF0023E8
:1018B000FB633A23FB1800221A703B1D1800214BD2
:1018C00098473B1D204ADA613B1D204A1A623B1DA6
:1018D0001F4ADA823B23FB1803221A701EE03A23C8
:1018E000FC183A1D1B491C4B18001C4B9847030061
:1018F00023703A23FB181B78002B04D13A23FB18E2
:101900001B78FB630FE0144B1800154B98473B23E3
:10191000FB181A783B23FB18013A1A703B23FB187B
:101920001B78002BDBD1FB6B002B04D10A4B18007A
:101930000C4B984700E0C046FB6B1800BD4611B049
:1019400090BDC0467D17000002000800020009009B
:10195000102700000008004218460020BD3F00008C
:10196000F14000000118000080B584B000AF78603D
:101970000E4B00221A700D4B01229A600023FB606F
:101980000B4B1B680C22BA1811001800094B984722
:10199000094B00221A70FB68002B03D0074B8022F2
:1019A00052051A60C046BD4604B080BD70080020D4
:1019B00040460020597200006C08002004ED00E051
:1019C00080B584B000AF78600E4B00221A700D4BCA
:1019D00001229A600023FB600B4B1B680C22BA1893
:1019E00011001800094B9847094B00221A70FB6838
:1019F000002B03D0074B802252051A60C046BD461B
:101A000004B080BD700800204046002059720000DC
:101A10006C08002004ED00E080B584B000AF786071
:101A20000E4B00221A700D4B01225A600023FB60FE
:101A30000B4B1B680C22BA1811001800094B984771
:101A4000094B00221A70FB68002B03D0074B802241
:101A500052051A60C046BD4604B080BD7008002023
:101A600040460020597200006C08002004ED00E0A0
:101A700080B500AF1149124B00221800114B984756
:101A80000F4B00211800104B984710490C4B0122B6
:101A900018000C4B98470A4B012118000A4B984735
:101AA0000B49074B02221800064B9847044B0221B2
:101AB0001800054B9847C046BD4680BD6919000017
:101AC00018460020F50B000075180000C119000031
:101AD000191A000080B582B000AF00237B60144B60
:101AE000984703007B607B68002B1AD1114B984705
:101AF0000120114B98470200104B1A60032200216D
:101B000001200F4B984702000E4B1A600B4B1B68CD
:101B1000002B03D00B4B1B68002B03D106237B60EB
:101B200000E0C0467B681800BD4602B080BDC046DC
:101B3000A9180000711A0000916B000014460020E3
:101B4000296900004046002090B589B000AF786058
:101B50000023FB610023BB6100237B6100233B6109
:101B60007B68002B03D07B685B68002B03D10823C4
:101B70005B42FB611FE07B681B789AB2104B1A80B6
:101B80007B685A680E4B5A607B68DA890C4B5A8026
:101B90000F23FC180A4A0B4B110018000A4B9847F8
:101BA000030023700F23FB181B78002B03D00623A0
:101BB0005B42FB61C046FB691800BD4609B090BDA1
:101BC0004446002018460020790E000090B589B0E8
:101BD00000AF78600023FB610023BB6100237B61C1
:101BE00000233B617B68002B03D07B685B68002B84
:101BF00003D108235B42FB611FE07B681B789AB22C
:101C0000104B1A807B689A680E4B5A607B689A89E1
:101C10000C4B5A800F23FC180A4A0B4B110018007A
:101C20000A4B9847030023700F23FB181B78002BE7
:101C300003D006235B42FB61C046FB691800BD462A
:101C400009B090BD4446002018460020950D0000C4
:101C500090B583B000AF00237B60094B1868002368
:101C600000220021074CA0470300012B02D01423BF
:101C70005B427B607B681800BD4603B090BDC046E8
:101C800014460020D16B000080B584B000AF7860AE
:101C90000023FB60084B1B687A6811001800074B93
:101CA00098470300012B02D01D235B42FB60FB68B9
:101CB0001800BD4604B080BD14460020E178000045
:101CC00080B584B000AF78600023FB60044B1A68D5
:101CD0007B681A60FB681800BD4604B080BDC04632
:101CE0004046002080B500AF024B1B781800BD466F
:101CF00080BDC0466C08002080B582B000AF0200F5
:101D0000FB1D1A70034BFA1D12781A70C046BD46AF
:101D100002B080BD6C08002080B584B000AF786050
:101D200039600023FB600023BB603B681800274B31
:101D300098470300FB60FB68002B38D10823FB1891
:101D40001800234B98470300FB60FB68002B30D141
:101D50007B6818001F4B98470300FB60FB68002B53
:101D60002AD1BB683A68110018001B4B9847030042
:101D7000012B11D1194B9847031E11D00020184B8D
:101D80009847FB68002B03D021235B42FB6014E0E3
:101D900003235B42FB6010E003235B42FB600CE02B
:101DA000104B98470200FB681343FB6002E0C046FB
:101DB00000E0C046FB6805E0C0460A4B98470300B8
:101DC000FB60FB681800BD4604B080BD891C0000A4
:101DD000C11C0000491B0000E1780000E51C000068
:101DE000F91C0000511C000080B586B000AFF860FF
:101DF000B9607A6000237B6100233B617B68180037
:101E00003A4B984703007B617B69002B5ED110231E
:101E1000FB181800364B984703007B617B69002B49
:101E200056D1FB681800334B984703007B617B69F0
:101E3000002B50D13B697A68110018002E4B98474F
:101E40000300012B18D12D4B9847031E06D000200C
:101E50002B4B984703235B427B613DE0BB68180036
:101E6000284B9847FB681800274B984703007B6175
:101E70007B69002B04D02FE003235B427B612BE0C6
:101E80003B697A68110018001B4B98470300012B2F
:101E900011D11A4B9847031E11D00020184B9847B8
:101EA0007B69002B03D021235B427B6114E0032379
:101EB0005B427B6110E003235B427B610CE0134BD0
:101EC000984702007B6913437B6102E0C04600E053
:101ED000C0467B6905E0C0460C4B984703007B6118
:101EE0007B691800BD4606B080BDC046891C000055
:101EF000C11C0000491B0000E1780000E51C000047
:101F0000F91C000035860000CD1B0000511C0000AC
:101F100090B583B000AF78607A680A4B0A21100050
:101F200098470300DBB21B01DCB27A68064B0A213A
:101F3000100098470B00DBB2E318DBB21800BD4677
:101F400003B090BDE5F10100B1F3010080B582B0AE
:101F500000AF0200FB1D1A70FB1D1B781B09DBB2D2
:101F60001A0013009B009B185B001900FB1D1B78D7
:101F70000F221340CB181800BD4602B080BD0000F0
:101F8000B0B588B000AF05000C0010001900FB1DB3
:101F90002A1C1A70BB1D221C1A707B1D021C1A7091
:101FA0003B1D0A1C1A70FB1D1B7818003A4B984702
:101FB00003001A001823FB181A70BB1D1B781800A9
:101FC000354B984703001A001823FB185A707B1DE5
:101FD0001B781800304B984703001A001823FB1891
:101FE0009A703B1D1B7818002B4B984703001A0072
:101FF0001823FB18DA703023FB181B781800264BC7
:10200000984703001A001823FB181A713423FB1891
:102010001B781800204B984703001A001823FB1860
:102020005A713823FB181B7818001B4B9847030084
:102030001A001823FB189A710823FB1868221A70DB
:102040000823FB181822BA185A600823FB18134AF1
:102050009A600823FB1800229A810823FB180722A4
:10206000DA810823FB1818000D4B984702001F2344
:10207000FB181A701F23FB181B78002B04D1094B87
:102080001800094B984703E0084B1800064B984787
:10209000C046BD4608B0B0BD111F0000A4460020D8
:1020A000491B0000F432020089A200001433020030
:1020B00080B586B000AF78601323FB1800221A7039
:1020C000394B68221A70384B1322BA185A60364BB3
:1020D0000122DA81344B0C22BA189A60324B072263
:1020E0009A81FA239A00FA2359002F4B18002F4B9C
:1020F000984703007B617B69002B4CD10C23FB18B4
:102100001B7818002A4B98470300DAB27B681A70D4
:102110000C23FB185B781800254B98470300DAB2B4
:102120007B685A700C23FB189B781800204B98474B
:102130000300DAB27B689A700C23FB18DB78180076
:102140001B4B98470300DAB27B68DA700C23FB184C
:102150001B791800164B98470300DAB27B681A7196
:102160000C23FB185B791800114B98470300DAB277
:102170007B685A710C23FB189B7918000C4B98470D
:102180000300DBB2303BDAB27B689A71094B18006E
:10219000094B984703E0094B1800074B9847C04686
:1021A000BD4606B080BDC0468C460020E91D00003B
:1021B0004D1F00002C33020089A2000048330200AA
:1021C00080B584B000AF0200FB1D1A700F23FB180E
:1021D000FA1D1278D2091A700E23FB18FA1D127814
:1021E00052091A700D4BBB600F23FB181B78002B94
:1021F0000FD10F23FB181B789B0010229446BC4480
:102200006344083B1A680E23FB181B78DB01D318C4
:1022100000E000231800BD4604B080BD004400412A
:1022200080B582B000AF0200FB1D1A70FB1D1B7849
:102230001800034B984703001800BD4602B080BD4C
:10224000C121000080B584B000AF0200FB1D1A70F0
:10225000BB1D0A1C1A70FB1D1B7818000D4B9847FC
:102260000300FB60FB1D1B781F22134001229A40D4
:102270001300BB60BB1D1B78002B03D0FB68BA6842
:102280009A6102E0FB68BA685A61C046BD4604B074
:1022900080BDC0462122000080B500AF024B002265
:1022A0001A70C046BD4680BD9908002080B582B036
:1022B00000AF0200FB1D1A70FB1D1B785BB2DB43F5
:1022C0005BB2064A127852B213405BB2DAB2034BE9
:1022D0001A70C046BD4602B080BDC04699080020B5
:1022E00080B582B000AF0200FB1D1A70054B1A7852
:1022F000FB1D1B781343DAB2024B1A70C046BD4671
:1023000002B080BD9908002080B582B000AF020005
:10231000FB1D1A70064B1B78FA1D12781340DBB2B6
:102320005A1E9341DBB21800BD4602B080BDC046C4
:102330009908002090B585B000AF786039607B685F
:10234000002B02D03B68002B01D1002313E00F23A8
:10235000FC1839680A4B002218000A4B9847030002
:102360002370074B1800084B98470F23FB181B7866
:102370005A425341DBB21800BD4605B090BDC0467D
:10238000CC0A0020219E010021A8010080B59EB04A
:1023900000AFF860B960FB1D1A707623FB180122AC
:1023A0001A807423FB1800221A806E23FB18002267
:1023B0001A807223FB1800221A802423FB181800AD
:1023C00041231A000021924B98471823FB1818004C
:1023D00009231A0000218E4B98471423FB18002272
:1023E0001A600023BB667123FB1800221A70BB68B9
:1023F000002B01D1002306E1BA68FB681100180028
:10240000844B984703001A0001235340DBB2002B92
:1024100001D00123F7E0BB6818007F4B9847030009
:10242000402B01D90023EEE0BB682E2118007B4B26
:1024300098470300BB66BB6E002B52D0BB6E1800E2
:10244000754B984702006E23FB181A806E23FB1809
:102450001B88072B37D87123FB1801221A70BA6E1C
:102460001823FB18110018006D4B9847BB68180023
:10247000694B984702006E23FB181B88D31A3C2B2C
:1024800011D97423FB186E22BA1812883C218A1ABB
:102490001A807423FB181A88B9682423FB181800C3
:1024A000604B98472AE0BA6EBB68D21A7423FB18B7
:1024B0001A807423FB181A88B9682423FB181800A3
:1024C000584B98471AE07423FB183C221A80742357
:1024D000FB181A88B9682423FB181800514B984739
:1024E0000CE07423FB183C221A807423FB181A8812
:1024F000B9682423FB1818004A4B98477423FB182B
:102500001B887422BA18591C11801A002423FB1846
:102510002D2199547623FB1800221A807223FB1870
:1025200001221A8010E07223FA187223FB181B880C
:10253000191C8900CB18DB1813807623FB181A8826
:102540007623FB1801321A807623FB181B88022B96
:10255000E9D97623FB1801221A804BE07623FB1879
:102560001A8831491423FB181800304B98477423FC
:10257000FB181B882422BA18D3181422B918032276
:102580001800284B98477123FB181B78002B0CD0A0
:102590007423FB181B8803332422BA18D31818227B
:1025A000BA18110018001E4B98472423FA18FB682C
:1025B00011001800174B984703001A0001235340DD
:1025C000DBB2002B0FD0FB1D1A78BB68002118006E
:1025D0000F4B98472423FA18BB6811001800104BC2
:1025E000984701230FE07623FB181A887623FB18FF
:1025F00001321A807623FA187223FB1812881B887E
:102600009A42ABD300231800BD461EB080BDC04621
:102610008B0D020035230000431102009D110200C2
:10262000F710020073110200743302004910020017
:1026300090B585B002AF0120234B984703001A00E4
:1026400001235340DBB2002B05D0204B19000120A1
:102650001F4B984734E002201B4B984703001A0099
:1026600001235340DBB2002B05D01A4B1900012087
:10267000174B984724E00420134B9847031E05D0BE
:10268000154B19000120124B984719E008200E4BFA
:102690009847031E05D0114B190001200C4B984799
:1026A0000EE00F4B19000120094B98470D490E48C9
:1026B00000230093002301220C4CA04703007B6001
:1026C000BD4603B090BDC046092300007C33020024
:1026D00075A30000A8330200D433020000340200C6
:1026E0002C340200583402000C47002075D401003D
:1026F000B0B586B000AF786039607B68002B02D03F
:102700003B68002B05D1584B19000120574B9847C7
:10271000A6E00820564B984703001A0001235340B7
:10272000DBB2002B55D000237B61524B30221A7054
:10273000504B3A225A70504B7B6102E07B69013B5F
:102740007B617B691B782F2BF8D17B6918004B4B81
:1027500098470300012B24D97B6901337B617A6997
:10276000474B11001800474B98474249464B4022BF
:102770001800464B98473F4A454B190001203B4BF8
:1027800098471323FC183B493F4B0A221800414B42
:102790009847030023701323FB181B78002B12D0DB
:1027A00008E03D4B19000120304B984720203B4B5F
:1027B000984755E01323FB181A78394B190001206C
:1027C0002A4B98474CE0374B00221A600820334BC5
:1027D00098477B68002B43D00023FB601323FC1831
:1027E0000C23FB183A68796827482F4DA847030047
:1027F00023701323FB181B78002B0CD0224B1800DE
:102800002A4B98472020254B9847294B1900012037
:10281000164B984724E0234B1A68FB68D218214BCB
:102820001A60204B1A68234B1B68234901200F4C68
:10283000A0471C4B1A681F4B1B689A4210D3124BBF
:1028400018001A4B98471D4B19000120074B984759
:10285000002117201A4B98471020104B9847C0466C
:10286000BD4606B0B0BDC0467834020075A3000076
:1028700009230000A000002075340200431102006B
:10288000A2000020F7100200CC0A00208D230000D7
:10289000DC340200219E01009C340200E122000091
:1028A00004350200F40A002051A3010021A8010010
:1028B00038350200F00A002074350200A835020005
:1028C0004522000090B585B000AFF860B9607A602D
:1028D000BB68042B00D977E0BB689A003C4BD31847
:1028E0001B689F463B4B190001203B4B98476BE010
:1028F0003A4B19000120384B98470420384B984731
:1029000062E07B681B881A007B685B6835490120A0
:10291000314CA0477B681B88C82B0DD17B685A6857
:10292000314B1A60314B00221A607B685A68802351
:102930009B009A4243D803E02020294B984743E06C
:102940007B689A687B685B6819001000284B984781
:102950001020234B984732E07B685A687B681B68DD
:1029600019001000224B98477B681B7A002B28D057
:1029700010201B4B984724E07B681A681D4B1900F8
:102980000120154B98477B681B680B331BD108202F
:10299000194B9847031E06D0184B1800184B984740
:1029A0000820184B98470420134B9847031E02D069
:1029B0000420144B9847144B9847C04603E0C04688
:1029C00002E0C04600E0C046BD4605B090BDC0462E
:1029D000E83C0200DC35020075A30000143602005A
:1029E000E122000040360200F00A0020F40A002034
:1029F000F12600007C36020009230000CC0A0020EA
:102A000021A80100AD2200003126000080B582B06F
:102A100000AF3A60FB1D021C1A70BB1D0A1C1A7025
:102A20003A68BB1D1978FB1D1B785BB21800034B7D
:102A30009847C046BD4602B080BDC04685D1010062
:102A4000B0B586B004AF786039603B68FF221340B0
:102A50001C003B681B0A1A00FF2313403A68120C43
:102A60001100FF220A403968090E0D0078680949F3
:102A7000029501920093230002000120064CA0471A
:102A80003A687B6811001800044B9847C046BD4661
:102A900002B0B0BDAC36020075A30000E9D201005F
:102AA00090B587B002AF02003960FB1D1A70FB1DA4
:102AB0001B782C2B02D0322B3DD06FE03B68FB60A3
:102AC000FB681B78012B07D1364B19000120364BD0
:102AD0009847364B98475EE0FB681B78002B5AD12D
:102AE000334B19000120304B98470220314B984757
:102AF0000820314B9847031E06D0304B1800304B4E
:102B0000984708202B4B984704202B4B9847031ECF
:102B100002D00420274B98472A4B012118002A4B4A
:102B200098472A4A2A48FF230093130002220D21C6
:102B3000284CA0472FE03B68BB60BB681B7818009F
:102B4000BB6801331B781C00BB6802331B781A007A
:102B5000BB6803331B7820490193009223000200D5
:102B60000120114CA04702201C4B98471C4B1B789E
:102B7000012B02D11B4B98470FE01B4A114B110050
:102B800018001A4B9847031E07D0194B1900012053
:102B9000054B984701E0C04600E0C046C046BD4630
:102BA00005B090BDDC36020075A3000055E90000B9
:102BB000FC360200AD22000009230000CC0A0020F0
:102BC00021A80100F80A002031BE010020370200D0
:102BD0003437020081E4000044370200E1220000A3
:102BE000980800203126000060330200FDBC01007F
:102BF0006C37020090B583B000AF294B9847294B42
:102C000019000120284B9847FC1D0020274B9847AE
:102C100003002370FB1D1B78012B10D1244B1900DE
:102C20000120214B9847234B190001201E4B984748
:102C3000C0460020204B98470300022BF9D1FB1D12
:102C40001B78002BE0D11D4B19000120164B984733
:102C50008C239A001A4B002118001A4B9847BC1D70
:102C6000174B19000020184B984703002370BB1D19
:102C70001B780B2B07D1BB1D1A78144B19000120B0
:102C8000094B984708E0124B19000120064B984762
:102C90000120104B9847C046BD4603B090BDC046CA
:102CA0008DB100009037020075A3000069B60000E6
:102CB000C8370200F0370200DDB1000024380200FE
:102CC0009C0800208B0D0200C99D010048380200BD
:102CD00078380200E122000080B582B000AF3B1DD1
:102CE0001800084B98473A1D074B11001800074B76
:102CF0009847054B1800064B9847C046BD4602B0A2
:102D000080BDC04619E90100B44600203DE901003C
:102D100029EA010080B588B000AF3B001800164BCF
:102D200098473B00802292001A613B00134A5A6088
:102D30003B00BC22FF321A803B0001229A703A000D
:102D40000F4B110018000F4B98470300FB61FB6904
:102D5000002B06DAFA690C4B190001200B4B98473F
:102D6000FEE70B4A064B110018000A4B9847C04675
:102D7000BD4608B080BDC046ADCF0100B4460020BE
:102D80000C470020F9CF01009C38020075A3000019
:102D9000C5280000E5D0010080B582B000AF3A60E0
:102DA000FB1D021C1A70BB1D0A1C1A703A68BB1D61
:102DB0001978FB1D1B785BB21800034B9847C0467F
:102DC000BD4602B080BDC046A5BC010080B582B042
:102DD00000AF786039603A687B6811001800034BD7
:102DE0009847C046BD4602B080BDC046D9BC010070
:102DF00090B589B002AF78601023FB1800221A70DA
:102E00001023FB1800225A701023FB1800229A701E
:102E10007B685B685A687B685B689B682449012013
:102E2000244CA0477B681B689B6823490422180038
:102E3000224B9847031E37D17B681B689B6804337D
:102E4000FB6000237B6115E07C69631C7B61FB6890
:102E50000C22B9180A221800194B98470300DAB25D
:102E60001023FB181A55FB681B782C2B0AD1FB6822
:102E70000133FB607B69022B05DCFB681B78002BB0
:102E8000E2D100E0C0461023FB181B781A00102383
:102E9000FB185B7818001023FB189B7809490093F6
:102EA00003000120034CA047C046BD4607B090BDBB
:102EB000E438020075A30000EC3802005111020052
:102EC000FD120200F438020090B58BB000AF7860BC
:102ED0000C23FB181422FF211800414B98477B68F4
:102EE0001B689B683F49092218003F4B9847031E07
:102EF00059D13E4B190001203D4B98477B685B68D8
:102F00005A687B685B689B683A490120384CA04747
:102F10007B681B68DA687B681B689B683649012000
:102F2000334CA04700237B627B681B689B68093396
:102F3000BB6015E07C6A631C7B62BB680822B91821
:102F40000A2218002D4B98470300DAB20C23FB1815
:102F50001A55BB681B782C2B0AD1BB680133BB60A8
:102F60007B6A132B05DCBB681B78002BE2D100E0E9
:102F7000C046234B190001201D4B984700233B629C
:102F80000DE00C23FA183B6AD3181B781A001D4B6E
:102F900019000120164B98473B6A01333B623B6A9C
:102FA000132BEEDD18E0184B19000120104B984749
:102FB0007B685B685A687B685B689B680D49012089
:102FC0000B4CA0477B681B68DA687B681B689B68B2
:102FD00009490120064CA047C046BD460BB090BD34
:102FE0008B0D020008390200511102001439020051
:102FF00075A30000E438020030390200FD1202001F
:10300000383902004C3902005039020090B583B0C3
:1030100000AF7860094B19000120094B98477B6885
:103020005B685A687B685B689B6806490120044CB2
:10303000A047C046BD4603B090BDC04680390200DF
:1030400075A30000E438020090B58BB006AFF860BD
:10305000B9607A60BB68012B3BD0052B5ED0002B9A
:1030600000D061E07B681B68002B25DB304B19002A
:103070000120304B98473049304AF86800230593C7
:10308000002304930023039300230293002301935E
:103090002A4B00930B000121294CA047031E05D0A9
:1030A000284B19000120234B98473DE0264B19007F
:1030B0000120204B984737E0244A254B1900012076
:1030C0001C4B9847214AFB6811001800214B984778
:1030D0002AE07B681B78002B17D11F4B1F49F8682B
:1030E00002221F4CA0471F4B1F49F86802221C4CAC
:1030F000A0471E4B1E49F8680222194CA0471D4BE1
:10310000190001200B4B98470EE07B681B781A00D2
:10311000194B19000120074B984705E0174B190080
:103120000120044B9847C046C046BD4605B090BD3F
:10313000E439020075A30000003A0200103A0200D0
:1031400045BD01001C3A0200443A0200603302000F
:10315000603A0200FDBC0100C92E0000983A02004E
:10316000E5BE0100F12D0000C03902000D30000065
:10317000AC3A0200C03A0200D43A0200083B020016
:1031800080B588B000AF3B1D18001F4B98473B1D12
:103190001E4A9A603B1D80229200DA603B1D1C4A49
:1031A0001A613B1D802292005A613B1D194A1A8008
:1031B0003B1D194A9A803A1D184B11001800184BF4
:1031C00098470300FB61FB69002B06DAFA69154B8F
:1031D00019000120144B9847FEE7144A0F4B1100C9
:1031E0001800134B98470300FB61FB69002B06DABC
:1031F000FA69104B190001200B4B9847FEE7C046B7
:10320000BD4608B080BDC0463DBC0100300B00206B
:10321000300D00205B07000070170000F80A002046
:103220008DBB01001C3B020075A30000493000006B
:103230007DBC0100503B020080B584B000AF3B1D57
:1032400018000B4B98473B1D37221A603B1D00228C
:103250005A603B1D01221A723B1D0222DA723B1D8D
:1032600019000720034B9847C046BD4604B080BDF7
:10327000752D0100A92D010080B500AF064B00227D
:1032800007211800054B984700210720044B984759
:10329000C046BD4680BDC046A5320000752901006C
:1032A000D9290100B0B500AF0C4B1B685A1C0B4B61
:1032B0001A600A4B1B68282B02D9084B01221A609E
:1032C000064B1B68064A07483F21074CA047074B9F
:1032D00001221A70C046BD46B0BDC0469C00002009
:1032E000843B02005C000020E50F0200300F00204C
:1032F00080B500AF154A164B11001800154B9847C2
:10330000031E08D0144B19000120144B984702E00B
:103310000020134B98470E4B34229B5C002BF7D1B7
:10332000104B9847104B01221A70104A104B110095
:103330001800104B9847104B9847104B9847104B6C
:1033400003221A70C046BD4680BDC04660330200ED
:10335000F80A002031BE01006C37020075A300009E
:1033600065E40000211A010098080020412A0000AD
:103370000D2A0000691A0100D11901003126000050
:103380008408002090B585B000AF09E000202A4BEA
:1033900098472A4B18002A4B98470520294B9847F5
:1033A0001020294B984703001A0001235340DBB239
:1033B000002B09D02020244B984703001A0001233A
:1033C0005340DBB2002BE1D1204B9847FA239B00FE
:1033D00018001C4B98471E4B00221A703B001D4AD8
:1033E00013CA13C33B0030221A700F23FC18390094
:1033F000194B0A221800194B9847030023700F231A
:10340000FB181B78002B08D00F23FB181A78144BDD
:1034100019000020134B984703E0134B1800134B7F
:1034200098470D4B1800124B9847124B00221A7008
:10343000C046BD4605B090BD65E40000B44600201E
:1034400059EB01003586000009230000211A010014
:1034500098080020BC3B0200CC0A0020219E0100FD
:10346000983B020075A30000A83B020089A200005F
:1034700021A801008408002080B500AF184B9847B0
:10348000184B9847184A194B11001800184B9847C9
:10349000184B9847184B34229B5C01225340DBB2F7
:1034A000002B0CD0154A144B11001800144B9847F0
:1034B000031E04D0134B19000120134B98470E4BE9
:1034C00034229B5C002B04D0104B190001200E4BC2
:1034D00098470F4B01221A70C046BD4680BDC046BA
:1034E000211A010081310000CD2D0000992D00002E
:1034F000691A0100D1190100F80A002060330200A6
:10350000FDBC01006C37020075A30000C83B02003F
:103510008408002080B500AF00200B4B98470B4B70
:1035200018000B4B98470B4B98470B4B98470B4B8E
:1035300034229B5C002B04D0084B64211800084BFC
:103540009847C046BD4680BD65E40000B4460020F3
:1035500059EB0100F135000065350000F80A002044
:103560002DBF010090B585B002AF184B1B68390024
:1035700000221800164B98470300012B21D13B0075
:1035800000229B5E1C003B0002229B5E19003B0058
:1035900004229B5E0F4A10480193009123003F21B3
:1035A0000E4CA0470C4B18000D4B984704000A4ADC
:1035B0000C490D48002301930123009323000B4C79
:1035C000A047C046BD4603B090BDC046900800204D
:1035D00089740000E43B02001C000020E50F02009B
:1035E00043110200AC3A0200F80A002079BE010043
:1035F00090B58BB002AF394B1B680822B918002276
:103600001800374B98470300012B63D1354B364ADE
:1036100003CA03C312881A800023FB612DE008232C
:10362000FA18FB69D3181B78FF2B2AD00823FA1845
:10363000FB69D3181B782D4A380003212C4CA04776
:103640003A00284B110018002A4B9847FB690133B8
:103650000822BA18D35CFF2B0CD0FB690133132B63
:1036600008DC3B002C221A803A001E4B1100180087
:10367000204B9847FB690133FB61FB69132BCEDDBF
:1036800000E0C046174B18001B4B984703001A0078
:10369000144BD218194B1000190003231A00184BB1
:1036A0009847104B19000120164B9847164B1900EC
:1036B0000120144B98470B4B18000F4B9847040000
:1036C000084A124912480023019301230093230062
:1036D000104CA047C046BD4609B090BD8C080020E4
:1036E000897400001C00002008390200083C020018
:1036F000E50F0200C9100200431102000C3C020059
:10370000550D020075A30000103C0200143C02009D
:10371000F80A002079BE010090B58DB002AF786044
:103720006420794B9847794B984700220421052063
:10373000774B98470200774B1A600022062105203C
:10374000734B98470200744B1A6000221421022028
:103750006F4B98470200714B1A600022022105202E
:103760006B4B984702006E4B1A606A4B1B68002B2C
:103770000BD0694B1B68002B07D0684B1B68002BD4
:1037800003D0674B1B68002B03D1664B1800664BB8
:103790009847664B1800644B9847654B9847654BB4
:1037A0009847654B9847654B9847654B9847654BDD
:1037B00098470C23FB18182200211800624B9847E9
:1037C000624B98470C23FB18614A1A602723FC18A8
:1037D0000C23FB1818005F4B984703002370272326
:1037E000FB181B785BB2002B09D02723FB180022A3
:1037F0009A56594B19000120584B9847FEE7584AF2
:10380000584B19000120554B9847574B9847574A3A
:10381000574B11001800574B9847574A5048FF2301
:103820000093130002220D21544CA04706E0002013
:10383000534B9847534B1800534B98470220534B18
:10384000984703001A0001235340DBB2002BEED14E
:10385000FA239B0018002C4B98474D4B01221A70FD
:103860004B4B1B785BB2012B0BD002DC002B05D03D
:1038700010E0022B08D0032B09D00BE0454B9847F2
:103880000CE0454B984709E0444B984706E0444B11
:10389000984703E03E4B00221A70C0460B23FB18EA
:1038A00000221A701B4B1B680B22B918002218004B
:1038B0003C4B98470300012B05D10B23FB181B78C9
:1038C0005AB2334B1A70384B1B78DBB2002B17D02F
:1038D000364B1800364B98470400344A3549364871
:1038E00000230193012300932300344CA0472F4A67
:1038F000334B19000120194B98472B4B00221A70AB
:103900006420014B9847ABE7358600009922000000
:103910002969000088080020900800208C080020F9
:1039200094080020283C020089A20000503C0200BC
:10393000D92C0000152D000081310000F52B00006E
:1039400039320000793200008B0D020099C7000067
:10395000A12A000071E200006C3C020075A3000087
:1039600034370200983C0200D1190100CD2D00002F
:10397000992D0000691A01002037020081E400003F
:1039800065E40000B446002059EB01000923000063
:10399000840800207934000015350000F132000061
:1039A0008533000089740000300F00205C00002087
:1039B00043110200BC3C0200F80A002079BE01005D
:1039C000D83C020090B583B000AF0200FB1D1A7016
:1039D000FB1D1B78032B06D8054B1868F91D002327
:1039E0000A22044CA047C046BD4603B090BDC04665
:1039F00088080020D16B000080B582B000AF7860ED
:103A00007B6800221A70C046BD4602B080BD00002F
:103A100080B582B000AF02003960FB1D1A70FB1D3B
:103A20001B78012B0AD0022B0FD0002B14D10E4B88
:103A30000D4A91693A680A439A610FE00A4B0A4AB3
:103A4000D1693A680A43DA6108E0074B064A116A0D
:103A50003A680A431A6201E0172300E000231800C5
:103A6000BD4602B080BDC0460004004080B582B0B3
:103A700000AF78607B6880221A707B6800225A70E1
:103A80007B6801229A707B680022DA70C046BD46CE
:103A900002B080BD80B500AF054B9B78DBB21A0049
:103AA000022313405A1E9341DBB21800BD4680BD6D
:103AB0000020004180B500AF024B9847C046BD468C
:103AC00080BDC046C926010080B500AF024B9847B3
:103AD000C046BD4680BDC0461D27010080B582B0EE
:103AE00000AF0200FB1D1A70074AFB1D1B7819006E
:103AF0001F230B40012199400B0019008023D15056
:103B0000C046BD4602B080BD00E100E080B584B093
:103B100000AF78607B681B68FB60FB68DB6907228D
:103B200013405A1E9341DBB21800BD4604B080BD5D
:103B300080B582B000AF7860C0467B681800044B47
:103B40009847031EF9D1C046BD4602B080BDC046AD
:103B50000D3B000080B584B000AF78607B681B68C7
:103B6000FB607B681B6818000D4B9847030018002A
:103B70000C4B98477B6818000B4B9847FB688322D7
:103B80001A75FB6883221A76FB681B68022293432E
:103B90001A00FB681A60C046BD4604B080BDC0462E
:103BA0009D3B0100DD3A0000313B0000F0B597B0CD
:103BB00000AF786139610023FB6300233B6500237C
:103BC000FB643B2310229446BC44634400221A70D9
:103BD0007B691B68BB637B691B687B6323231022A3
:103BE000BA18D4187B6B1800C04B98470300237099
:103BF0000C2310229446BC4463441800BC4B9847E5
:103C00003B69DB697B643B691B6A3B647B6C002B13
:103C100006D17B6B00211800B64B984703007B64EC
:103C20007B6CDAB20C2310218C46BC4463441A70BE
:103C30000C2310229446BC44634402225A707B6CCD
:103C40001B0CDBB20C2210218C46BC4462441100D8
:103C50001800A94B98473B6C002B06D17B6B0121C8
:103C60001800A44B984703003B643B6CDAB20C236A
:103C700010218C46BC4463441A700C2310229446D5
:103C8000BC44634402225A703B6C1B0CDBB20C2216
:103C900010218C46BC44624411001800964B984792
:103CA0003B699A8A7B69DA803B69DA8A7B691A8187
:103CB0003B691B7E002B03D1904B9847031E02D01B
:103CC00080237B6501E000237B653B691B69002B3A
:103CD00004D03B691B697A6D13437B653B699B6824
:103CE0007A6D13437B653B6924229B5C002B04D0D7
:103CF0007B6D8022D20513437B653B699B6A002B59
:103D000004D03B699B6A7A6D13437B653B692C2227
:103D10009B5C002B05D13B699A6880239B049A42E7
:103D200004D17B6D8022120513437B653B692D22F4
:103D30009B5C002B04D07B6D8022120413437B65B7
:103D40003B692E229B5C002B04D07B6D8022D2032A
:103D500013437B65BB6B1A687B6D1A43BB6B1A60A0
:103D6000BB6B802252005A60232310229446BC442D
:103D700063441B781433DBB21800614B984703008F
:103D8000FB623B691B68FA2292005343BB623B69AA
:103D90005B68FA22920053437B623B691B8E3B6255
:103DA000584BF86A984705000E00564BB86A98477A
:103DB000B860F960534BF86A9847534C534A544BD8
:103DC000A04703000C003B607C604E4B386A98476C
:103DD00002000B004C4C38687968A04703000C00C7
:103DE000180021004B4C00224B4BA04703000C0055
:103DF0001A002300444CB868F968A04703000C007F
:103E00001A002300454C28003100A04703000C0095
:103E10001D002600BB6A5A003A4B1000984702006A
:103E20000B003C4C28003100A04703000C00180098
:103E300021003A4C00223A4BA04703000C001D0021
:103E40002600BB6A5A002F4B1000984702000B0057
:103E5000344C28003100A04703000C001900220058
:103E6000314B0800110098470300FB633B699A68D7
:103E700080239B049A426AD1224BF86A9847254CCA
:103E800002000B00A04703000C001D0026001D4B84
:103E9000786A98471C4C0022244BA04703000C0072
:103EA0001A0023001F4C28003100A04703000C001B
:103EB00018002100194C0022194BA04703000C00E8
:103EC00019002200184B0800110098470300FB64FA
:103ED000FB6C002B2ED0164B796AF86A98470300CA
:103EE0009A1EFB6CD31A3B6531E0C046CD3A010007
:103EF0006D3A000011390100BD660100953A0000DD
:103F0000816401002D0C02009900020095D626E87C
:103F10000B2E113E11F4010000002440990502000F
:103F20000000F03F31FA0100C50B0200000008401C
:103F3000D1F001007B6A5A00FB6AD3185A1E7B6AD3
:103F400059001D4B100098470300013B3B65FB6B7C
:103F5000FF2B08DCFB6B002B05DB3B6DFF2B02DC32
:103F60003B6D002B06DA3B2310229446BC4463448D
:103F700040221A703B2310229446BC4463441B78B1
:103F8000402B0ED0FB6BFF221A403B6D1B04190027
:103F9000FF231B040B401343FA6C12061A43BB6B3E
:103FA000DA603B2310229446BC4463441B7818001B
:103FB000BD4617B0F0BDC046D1F0010090B58BB042
:103FC00000AFF860B9607A60FB68BA681A60FB6895
:103FD0001B687B62FB681B6818003B4B984703001B
:103FE0003B623B6A0233FB613B6A1433BB610122D3
:103FF000FB699A40130019000220344B98471423A0
:10400000FB181800324B98477B681A7B1423FB1867
:104010001A70BB69DBB21422BA18110018002D4BBC
:104020009847BB69DBB218002B4B98477B681B7B1A
:1040300000211800294B98477B6A1B680222134015
:1040400001D01C233BE07B6A1B680122134001D096
:10405000052334E0FB681B681722BC1818001A4BB4
:104060009847030023701E4A1723FB181B78110082
:1040700018001C4B98471723FB181A781A4B92000C
:10408000F968D150FB6800221A76FB6800225A7644
:10409000FB6800225A83FB6800229A83FB68252272
:1040A00000219954FB6800221A627B6A14221A606C
:1040B0007A68FB68110018000C4B98470300180041
:1040C000BD460BB090BDC046CD3A0100113A00008C
:1040D000F93900005D630100A1630100853801002A
:1040E000B90E0000313B01000C5A0020AD3B00002E
:1040F00080B584B000AF78607B681B68FB607B682C
:1041000018000F4B98477B6818000E4B98470E4BD2
:1041100098477B681B6818000C4B984703001800F1
:104120000B4B98470B4B98477B681800044B9847FC
:10413000FB6801221A60C046BD4604B080BDC0467F
:10414000313B0000553B0000B53A00009D3B0100AB
:10415000D9640100C93A000080B584B000AF78602E
:104160007B681B68FB60FB681B7EDBB21A000223C6
:1041700013400BD0FB6802221A76FB685B8B9BB264
:104180001A000223134011D0412310E0FB685B8B1F
:104190009BB21A000423134008D0FB685B68C0225E
:1041A00092021A43FB685A60182300E000231800AB
:1041B000BD4604B080BD80B584B000AF78607B6838
:1041C0001B68BB600E23FB1800221A800FE00E2331
:1041D000FB180E22BA18128801321A807B681B89DC
:1041E0000E22BA1812889A4201D312230EE0BB683D
:1041F0001B7EDBB21A000123134006D1BB681B7E75
:10420000DBB21A0002231340E1D000231800BD46A0
:1042100004B080BD90B585B000AF78600A00FB1C8B
:104220001A707B681B68FB60FB685B688022D202A7
:104230001A43FB685A60FB1C1A78FB685A620B230E
:10424000FC187B681800074B984703002370FB6835
:1042500001221A760B23FB181B781800BD4605B007
:1042600090BDC046B741000080B500AF0020024BB2
:104270009847C046BD4680BDA542000080B500AF4E
:104280000120024B9847C046BD4680BDA5420000B4
:1042900080B500AF0220024B9847C046BD4680BDA6
:1042A000A542000080B584B000AF0200FB1D1A706B
:1042B000FB1D1A78284B9200D358FB60FB681B68E3
:1042C0009B7BDBB2FA68127E1340DAB2FB68597E40
:1042D0000B23FB180A401A700B23FB181B780122D2
:1042E000134008D0FB689B68FA6810009847FB6889
:1042F0001B6801229A730B23FB181B7802221340C0
:1043000008D0FB68DB68FA6810009847FB681B68F8
:1043100002229A730B23FB181B781022134008D03B
:10432000FB681B69FA6810009847FB681B6810223D
:104330009A730B23FB181B782022134008D0FB68CC
:104340005B69FA6810009847FB681B6820229A7323
:10435000C046BD4604B080BDF447002080B584B09F
:1043600000AF78600023FB607B68002B01D172B640
:10437000FEE70820114B98470300BB60BB68002B89
:1043800001D172B6FEE7BB68002B12D00C4B9847E8
:10439000BB687A681A60BB6800225A60094B1B68C8
:1043A000BA685A60074BBA681A60074B98470123EE
:1043B000FB60FB681800BD4604B080BD716700005B
:1043C00039660000EC0000205D66000080B588B012
:1043D00000AFF860B9607A600123FB613D4B1B6858
:1043E000002B44D13B4B3C4A1A603AE0394B1B68E6
:1043F0001B681B68BB61BB691800384B98470300FA
:104400007B61FA687B69D3181B78202B05D0FA688A
:104410007B69D3181B78002B1ED17A69B969FB68B8
:1044200018002F4B9847031E16D12A4B1B681B6898
:104430001B7B5BB2002B19DBFB681800294B9847EC
:1044400003001A00234B1B681B681B7B5BB29A425C
:104450000CD00023FB6109E01E4B1B685A681D4B02
:104460001A601C4B1B68002BC0D100E0C046194BE2
:104470001B68002B0CD0FB69002B09D17A681A4904
:10448000BB681800194B9847124B00221A601CE0B9
:10449000104B1B68002B10D00E4B1B681B689B68D1
:1044A000FA687968B86898470300FB61FB69002BDC
:1044B0000BD1084B00221A6007E07A680C49BB68F0
:1044C00018000A4B98470023FB61FB691800BD46A2
:1044D00008B080BD340F0020E4000020431102002A
:1044E0005111020055450000343D020073110200D5
:1044F0008C3D020080B586B000AFF860B9607A608C
:10450000114B1B68002B02D10F4B104A1A600E4B47
:104510001B681B685968BA68FB6818000C4B984701
:10452000094B1B685A68084B1A60074B1B68002B25
:1045300002D100237B6101E001237B617B691800CC
:10454000BD4606B080BDC046380F0020E400002004
:104550007311020080B584B000AF78600F23FB18A0
:1045600000221A700023BB6018E07B681B78202BA8
:104570000FD1BB68012B0ED00F23FB181B785BB249
:10458000DBB20133DAB20F23FB181A700123BB60D0
:1045900001E00023BB607B6801337B607B681B7894
:1045A000002BE2D1BB68012B09D10F23FB181B782C
:1045B0005BB2DBB2013BDAB20F23FB181A700F2398
:1045C000FB181B785BB21800BD4604B080BD00002C
:1045D00080B582B000AF78607B681800034B9847C5
:1045E00003001800BD4602B080BDC046997D0000A2
:1045F00080B582B000AF78607B681800034B9847A5
:1046000003001800BD4602B080BDC046C57D000055
:1046100080B582B000AF78607B681800034B984784
:1046200003009BB21800BD4602B080BDF5900000AB
:1046300080B582B000AF78607B681800044B984763
:1046400003001B0C9BB21800BD4602B080BDC046E3
:10465000F590000080B582B000AF78600A00BB1C06
:104660001A807B681800084B984703001B0C1A043B
:10467000BB1C1B881A437B6811001800034B98472A
:10468000C046BD4602B080BDF59000001D910000FF
:1046900080B582B000AF78600A00BB1C1A807B68CE
:1046A0001800094B984703001B041A0CBB1C1B88FD
:1046B0001B041A437B6811001800044B9847C0463E
:1046C000BD4602B080BDC046F59000001D910000BF
:1046D00080B582B000AF78607B681800034B9847C4
:1046E00003009BB21800BD4602B080BDD14500005A
:1046F00080B582B000AF78607B681800044B9847A3
:1047000003001B0C9BB21800BD4602B080BDC04622
:10471000D145000080B582B000AF78600A00BB1CB4
:104720001A807B681800084B984703001B0C1A047A
:10473000BB1C1B881A437B6811001800034B984769
:10474000C046BD4602B080BDD1450000AD7D000031
:1047500080B582B000AF78600A00BB1C1A807B680D
:104760001800094B984703001B041A0CBB1C1B883C
:104770001B041A437B6811001800044B9847C0467D
:10478000BD4602B080BDC046D1450000AD7D0000F1
:1047900080B584B000AF78600023FB600023BB606D
:1047A00018E0144BBA68D200D358002B0FD1114B2C
:1047B000BA68D2007968D1500E4ABB68DB00D318C2
:1047C0000433012252421A600123FB6005E0BB68FA
:1047D0000133BB60BB68092BE3DDFB68002B04D110
:1047E000054B1B685A1C044B1A60C046BD4604B0FA
:1047F00080BDC046400F0020900F002090B585B0CE
:1048000000AF0023FB602B4B1B68BB60294B1A6871
:10481000294BD200D358002B35D0264B1A68264B93
:10482000D200D3581800254B984703007B60214BDA
:104830001B68214ADB00D31804331A687B689A424C
:1048400007D91C4B1B681C4ADB00D31804337A6859
:104850001A60184B1A68184BD200D3581800184B1E
:1048600098470300DBB21900124B1B68124ADB00A9
:10487000D31804331B680A000321EA20114CA04717
:10488000FB680133FB600B4B1B685A1C0E4B0A2163
:10489000100098470B001A00064B1A60FB68002BAB
:1048A00004DC044B1A68BB689A42AFD1C046BD46CF
:1048B00005B090BD940F0020400F0020959200009D
:1048C0001146000059510000B1F3010080B500AF5E
:1048D000024B984703001800BD4680BD419300007D
:1048E00090B585B002AF7860144B98477B68012B78
:1048F00002D1134B98470EE07B68022B04D1114B79
:104900001800114B984706E07B68002B03D00F4B33
:1049100018000D4B98470E4B1B68002B09D10D4911
:104920000D480B4B0193042300930023C8220B4C2A
:10493000A047C046BD4603B090BDC0462558000004
:104940007D4D0000EC3D0200CD5E00002C3E0200DB
:104950003C0F0020603E0200614900009982000087
:1049600080B582B000AF7860044B9847031E01D039
:10497000034B98470420034B9847F5E7C14D0000CF
:10498000FD4700003586000080B500AF604B1B6816
:104990000922DA655E4B1B6864220A2199545C4B3C
:1049A0001B6865220A219954594B1B6866220A210B
:1049B0009954574B1B6867220F219954544B1B681D
:1049C000682205219954524B1B686922052199548C
:1049D0004F4B1B686A22052199544D4B1B686B2273
:1049E000052199544A4B1B686C2205219954484B68
:1049F0001B6870220F219954454B1B6871220F21AF
:104A00009954434B1B6872220F219954404B1B68E9
:104A100073220F2199543E4B1B6874220F21995425
:104A20003B4B1B6875220F219954394B1B6876222A
:104A30000F219954364B1B6877220F219954344B20
:104A40001B6878220F219954314B1B687C2210215E
:104A500099542F4B1B687D22102199542C4B1B68B5
:104A60007E22102199542A4B1B687F2213219954CE
:104A7000274B1B68802211219954254B1B688122EA
:104A800010219954224B1B68822213219954204BE8
:104A90001B688322132199541D4B1B688422132108
:104AA00099541B4B1B68882200219952184B1B6894
:104AB0008A22A0219952164B1B688C22A021490002
:104AC0009952134B1B688E22F02149009952104BCA
:104AD0001B6890220F4999520D4B1B6892220E4978
:104AE00099520B4B1B6894220C499952084B1B6836
:104AF00096220B499952064B1B6898228C21C900BB
:104B00009952034B1B68074A1A66C046BD4680BDD2
:104B100054100020FD02000052030000A203000018
:104B200001040000BF04000080B500AF2E4B00223E
:104B30005A822D4B5A8A2C4B1A802B4B0A229A826E
:104B4000294B9A8A284B5A80274B1422DA82264B0B
:104B5000DA8A254B9A80244B1E221A83224B1A8B09
:104B6000214BDA80204B2D225A831F4B5A8B1E4B30
:104B70001A811D4B32229A831B4B9A8B1A4B5A81F6
:104B8000194B3722DA83184BDA8B174B9A81164B65
:104B90003C221A84144B1A8C134BDA81124B41229B
:104BA0005A84114B5A8C104B1A820F4B09229A844B
:104BB0000D4B1322DA840C4B1D221A850A4B2C2232
:104BC0005A85094B31229A85074B3622DA85064BE6
:104BD0003B221A86044B40225A86034B45229A8672
:104BE000C046BD4680BDC046C40F002080B582B01F
:104BF00000AF0200FB1D1A70FB1D1B78082B16D896
:104C00009A000D4BD3181B689F460C4B10E00C4BC1
:104C10000EE00C4B0CE00C4B0AE00C4B08E00C4B8C
:104C200006E00C4B04E00C4B02E00C4B00E00C4B9C
:104C30001800BD4602B080BD68410200683E020017
:104C4000B03E0200F83E02004C3F0200983F0200D6
:104C5000E43F02003040020084400200DC400200D9
:104C60003841020090B587B000AF1723FB1800222F
:104C70001A70364B1B68002B0BD1344B1B68002B72
:104C800005D1334B1800334B9847002359E00023DC
:104C900057E02E4B1B681B6B012B01D1012350E009
:104CA0002D4B1B68002B49D1EFF31083BB60BB6811
:104CB0003B610123FB60FB6883F31088274B1B6873
:104CC0005A1C264B1A60214B1B6801221A63244B85
:104CD000984703001800234B984703001A00172336
:104CE000FB181A701723FB181B78002B16D11723FB
:104CF000FC1803201C4B9847030023701B4A172302
:104D0000FB181B7819000320194B98471723FB1831
:104D10001B78002219000320164B98471723FB1815
:104D20001B781800144B98470C4B1B685A1E0B4BF2
:104D30001A603B697B607B6883F31088034B1B68B8
:104D40001B6B1800BD4607B090BDC0465410002034
:104D50008C410200CD5E0000B40F0020AC0F00209B
:104D6000CD48000011460000B15B0000D0410200B8
:104D7000E15D0000455500002D54000080B500AFF6
:104D8000024B9847C046BD4680BDC046654C0000FA
:104D900080B500AF084B1B68002B03D0064B1B6887
:104DA00000221A63054B1B68002B02D0034B1B68C3
:104DB0009847C046BD4680BD54100020BC0F00205F
:104DC00080B500AF054B1B68002B03D0034B1B685D
:104DD0001B6B00E000231800BD4680BD541000206E
:104DE00090B589B000AF0200FB1D1A70FB1D1B7847
:104DF000002B57D02E4B1B68002B55D0FB1D1B786A
:104E00000F2B04D92B4B18002B4B98474DE02B4B05
:104E10001B68002B04D02A4B1800274B984744E00E
:104E2000EFF31083FB60FB68FB6101233B613B698F
:104E300083F31088214B1B685A1C204B1A60214BAE
:104E40001B681B6B002B22D01A23FC181E4B18006A
:104E50001E4B9847030023801923FB18FA1D127874
:104E60001A701B4B984703007B617B69002B0ED0A7
:104E70007B6902221A707B691A22BA1812885A803A
:104E80007B691922BA1812785A70124B98470B4B4B
:104E90001B685A1E094B1A60FB69BB60BB6883F331
:104EA000108802E0C04600E0C046BD4609B090BD93
:104EB000F800002038450200CD5E0000AC0F002055
:104EC0007845020054100020FFFF0000E160000060
:104ED000855A00008960000080B58EB000AFF86090
:104EE000B9607A60484B1B68002B00D188E07B6872
:104EF000002B03DA7B685B427B6301E07B687B63AA
:104F0000EFF31083BB61BB693B630123FB61FB696A
:104F100083F310883D4B1B685A1C3C4B1A60BB68DE
:104F2000002B05D03A4B1A687B68D218384B1A60B0
:104F3000354B1B681B6B002B57D0FF20354B984718
:104F400003001A002F23FB181A707B6B324A1900DA
:104F50001000324B984702002C23FB181A80304B6C
:104F600098470300BB62BB6A002B3ED0BB6A2F226E
:104F7000BA1812785A70BB6A00221A70BB6A2C22C7
:104F8000BA1812885A80274B9847BB68224A1900E2
:104F90001000224B984702002623FB181A80252375
:104FA000FB1800221A701E4B984703003B623B6AB5
:104FB000002B1AD03B6A2622BA1812885A803B6A04
:104FC0002522BA1812785A70FB68DBB20133DAB2C4
:104FD0003B6A1A70FB68DAB2BB6A1A70114B9847C9
:104FE000094B1B680A4A12681A65084B1B685A1E4F
:104FF000064B1A603B6B7B617B6983F3108800E092
:10500000C046BD460EB080BD54100020AC0F00203D
:10501000C00F0020E1600000FFFF0000A55200006B
:10502000855A00008960000090B58BB000AFF86031
:105030007A600B23FB180A1C1A70FB68FE2B04D93C
:10504000394B1800394B98476BE00B23FB181B7842
:10505000082B04D9364B1800344B984761E0354B88
:105060001A680B23FB181B786421D3185B181B7874
:105070001A007B689A4204D22F4B18002B4B98479A
:105080004FE02E4B1B68002B04D02D4B1800274BF4
:10509000984746E02B4B1B78002B41D0EFF3108351
:1050A0007B617B697B620123BB61BB6983F31088F1
:1050B000224B1B685A1C214B1A601E4B1B681B6B32
:1050C000002B22D02223FC181F4B18001F4B98479F
:1050D000030023802123FB187A681A701C4B984721
:1050E0000300FB61FB69002B0FD0FB692222BA1879
:1050F00012885A80FB68DAB2FB691A70FB692122B8
:10510000BA1812785A70134B98470C4B1B685A1EEA
:105110000A4B1A607B6A3B613B6983F3108800E0AD
:10512000C046BD460BB090BDE8450200CD5E000014
:10513000204602005410002068460200AC0F0020F8
:10514000B0460200B80F0020FFFF0000E160000041
:10515000855A00008960000080B58AB000AFF86011
:105160007A603B600B23FB180A1C1A70FB68FE2B4D
:1051700004D9404B1800404B984777E00B23FB18AD
:105180001B78082B04D93D4B18003B4B98476DE02A
:105190003B4B1A680B23FB181B786421D3185B1850
:1051A0001B781A007B689A4204D2364B1800324BA7
:1051B00098475BE0344B1B68002B04D0334B18003E
:1051C0002D4B984752E0EFF310837B617B697B6244
:1051D0000123BB61BB6983F310882B4B1B685A1CEE
:1051E000294B1A60264B1B681B6B002B34D0284BB5
:1051F0001B78002B30D0FF20264B984703001A0065
:105200002323FB181A703B681900FF20224B984794
:1052100002002223FB181A702123FB187A681A70E7
:105220001E4B98470300FB61FB69002B14D0FB6900
:105230002322BA181278DA70FB68DAB2FB691A70A6
:10524000FB692122BA1812785A70FB692222BA1817
:1052500012789A70124B98470B4B1B685A1E0A4BD8
:105260001A607B6A3B613B6983F31088BD460AB0D4
:1052700080BDC046E8460200CD5E0000284702001F
:105280005410002078470200AC0F0020C8470200ED
:10529000B80F0020E1600000A5520000855A000010
:1052A0008960000080B584B000AF786039607B68A9
:1052B000FF2B09D07B68194A934205D0184B180080
:1052C000184B98473B6824E03A687B689A4201D8BB
:1052D0003B681EE0144B98470300FB60FB68002B03
:1052E00014D0FB6801221A707B68DB433A681340D4
:1052F0001B0ADAB2FB685A707B68DB433A681340DA
:105300001B0C9AB2FB685A80084B98473B687A6836
:1053100013401800BD4604B080BDC046FFFF00002A
:1053200000480200CD5E0000855A00008960000040
:1053300080B58AB000AF786039602623FB18002260
:105340001A807B68FE2B04D92D4B18002D4B9847F3
:1053500053E02D4B1B68002B04D02C4B1800294B1D
:1053600098474AE0EFF310833B613B693B620123BE
:105370007B617B6983F31088234B1B685A1C224B8B
:105380001A60234B1B681B6B002B2CD0214B1B7806
:10539000002B28D0FF20204B984703001A001F2322
:1053A000FB181A703B681D4A190010001C4B9847E7
:1053B00002002623FB181A801A4B98470300BB6192
:1053C000BB69002B0FD0BB691F22BA1812785A7024
:1053D0007B68DAB2BB691A70BB692622BA181288D8
:1053E0005A80114B9847084B1B685A1E064B1A608F
:1053F0003B6AFB60FB6883F31088BD460AB080BD42
:105400003C480200CD5E0000AC0F00209448020032
:1054100054100020B80F0020E1600000FFFF0000E2
:10542000A5520000855A00008960000090B589B03F
:1054300000AF0200FB1D1A70FB1D1B780F2B04D957
:10544000344B1800344B984761E0EFF31083FB6056
:10545000FB68FB6101233B613B6983F310882F4BA1
:105460001B685A1C2D4B1A602D4B1B78FA1D1278A5
:105470009A4242D02B4B1B681B6B002B3DD02A4B12
:1054800000221A601A23FC18284B1800284B984752
:1054900003002380224BFA1D12781A701923FB187F
:1054A0001F4A12781A70234B984703007B617B696F
:1054B000002B22D01A4B1B78190003201E4B984753
:1054C0000300012B03D17B6907221A7002E07B697C
:1054D00006221A707B691A22BA1812885A807B69D0
:1054E0001922BA1812785A700D4B1B780122190034
:1054F0000320124B9847124B9847084B1B685A1EC3
:10550000064B1A60FB69BB60BB6883F31088BD461D
:1055100009B090BDCC480200CD5E0000AC0F002069
:10552000B80F002054100020980F0020FFFF00004B
:10553000E1600000855A00002957000085560000F0
:105540008960000090B583B000AF0400080011002E
:10555000FB1D221C1A70BB1D021C1A707B1D0A1C2D
:105560001A70FB1D1B78082B04D91A4B18001A4B14
:1055700098472CE0194B1A68FB1D1B786421D3183F
:105580005B181B78BA1D12789A4204D9144B180084
:10559000114B98471BE0114B1C68FB1D1A78BB1D73
:1055A0001B78110018000F4B9847030018000B4B95
:1055B0001A68FB1D1B787021D3185B181B78C31861
:1055C00001339C22E3189B187A1D12781A70BD468D
:1055D00003B090BD604A0200CD5E00005410002070
:1055E000AC4A0200D95A000090B583B000AF020067
:1055F000FB1D1A70BB1D0A1C1A70FB1D1B78082BA3
:1056000005D91B4B18001B4B984700232BE01A4B66
:105610001A68FB1D1B786421D3185B181B78BA1D10
:1056200012789A4205D9154B1800124B984700235F
:1056300019E0114B1C68FB1D1A78BB1D1B7811006B
:1056400018000F4B9847030018000B4B1A68FB1DFE
:105650001B787021D3185B181B78C31801339C2268
:10566000E3189B181B781800BD4603B090BDC046D8
:10567000EC4A0200CD5E000054100020384B0200BE
:10568000D95A000090B583B000AF040008001100A3
:10569000FB1D221C1A70BB1D021C1A707B1D0A1CEC
:1056A0001A70FB1D1B78082B04D91A4B18001A4BD3
:1056B00098472BE0194B1A68FB1D1B786421D318FF
:1056C0005B181B78BA1D12789A4204D9144B180043
:1056D000114B98471AE0114B1C68FB1D1A78BB1D33
:1056E0001B78110018000F4B9847030018000B4B54
:1056F0001A68FB1D1B787021D3185B181B78C31820
:105700009C22E3189B187A1D12781A70BD4603B0CC
:1057100090BDC046784B0200CD5E000054100020C2
:10572000BC4B0200D95A000090B583B000AF020014
:10573000FB1D1A70BB1D0A1C1A70FB1D1B78082B61
:1057400005D91A4B18001A4B984700232AE0194B29
:105750001A68FB1D1B786421D3185B181B78BA1DCF
:1057600012789A4205D9144B1800114B9847002320
:1057700018E0104B1C68FB1D1A78BB1D1B7811002C
:1057800018000E4B9847030018000A4B1A68FB1DBF
:105790001B787021D3185B181B78C3189C22E31860
:1057A0009B181B781800BD4603B090BDF84B020053
:1057B000CD5E0000541000203C4C0200D95A00007D
:1057C00090B583B000AF0200FB1D1A70114B1B682F
:1057D00067229B5CFA1D12789A4204D90E4B18007E
:1057E0000E4B984713E00B4B1C68FB1D1B780321E5
:1057F00018000B4B984703001900064B1B687322D7
:105800009B5CCB189C22E3189B1800221A70BD46A3
:1058100003B090BD54100020784C0200CD5E000013
:10582000D95A000080B500AF754B1B68002B03D11F
:10583000734B744A1A6006E0714B1B681B78DBB22D
:10584000012B00D1D8E0704B1A68704B1A606C4B7A
:105850001868BD231B011A0000216D4B9847684B47
:105860001B686C4A9A81664B1B6805229A73644BCD
:105870001B680022DA73624B1B68BD2212011A6199
:105880005F4B1B68962252009A615D4B1B68624A0F
:105890005A655B4B1B6800229A65594B1B680022B6
:1058A0005A635E4B9847564B1B685D4A5D49995059
:1058B000534B1A68AC23DB00C821D150504B1B68F6
:1058C000594A012199504E4B1A68D723DB0057499A
:1058D000D1504B4B1B68564A94466344554950225D
:1058E0001800554B9847464B1B68544A54499950E9
:1058F000434B1B68534A0A219954414B1B68524A37
:105900000B2199543E4B1B68504A0C2199543C4B37
:105910001B684F4A0D219954394B1B684D4A712120
:105920009954374B1B684C4A72219954344B1B686D
:105930004A4A73219954324B1B68494A742199543D
:105940002F4B1B68474AF12199542D4B1B68464A3F
:10595000F22199542A4B1B68444AF3219954284B4D
:105960001B68434AF4219954424B9847244B1B68C7
:10597000F422DA72224B1B68F3229A72204B1B68C6
:10598000F2225A721E4B1B68F1221A721C4B1B68C2
:105990007422DA711A4B1B6873229A71184B1B68B8
:1059A00072225A71164B1B6871221A71144B1B68B4
:1059B0000422DA70124B1B6803229A70104B1B688A
:1059C00002225A700E4B1B6801221A702A4B1B6868
:1059D000002B12D00A4B1B68154A9818264B1B68DF
:1059E00050221900144B9847054B1B68234A01218C
:1059F0009950234B984700E0C046BD4680BDC04645
:105A0000541000200048002018E000E0D05300208F
:105A10008B0D0200A11A0000F0F0F0F0894900009F
:105A20005C050000F1F1F1F164050000F2F2F2F220
:105A3000BC060000C04C0200995D00000C0700008D
:105A4000F3F3F3F3C40B0000C50B0000C60B00001A
:105A5000C70B0000C80B0000C90B0000CA0B0000F8
:105A6000CB0B0000CC0B0000CD0B0000CE0B0000D8
:105A7000CF0B0000294B0000B40F0020B40600003B
:105A8000914D000080B500AF104B1B681B6B002BC5
:105A900001D1002317E00D4B1B68DA692C23FF337B
:105AA0009A4205D90A4B18000A4B984700230AE08E
:105AB000064B1A68054B1B68DB699B00E221C90095
:105AC0008C466344D3181800BD4680BD5410002096
:105AD000D44C0200CD5E000080B582B000AF020061
