S01300004170706C69636174696F6E2E737265639D
S214012000087600200D8B0200058C0200058C02006C
S21401201000000000000000000000000000000000BA
S214012020000000000000000000000000A57C010088
S2140120300000000000000000C17D0100097E0100D3
S214012040058C0200058C0200058C02005D4C020026
S21401205089410200058C020061240100058C020002
S214012060A525010001530200195302003153020055
S214012070495302006153020079530200558A020057
S214012080698A02007D8A020091590100A559010062
S214012090B95901000000000000000000E92201001B
S2140120A0058C020025240100058C0200058C020027
S2140120B00000000010B5064C2378002B07D1054B15
S2140120C0002B02D0044800E000BF0123237010BD9E
S2140120D0E00200200000000020760300084B10B547
S2140120E0002B03D00749084800E000BF07480368F3
S2140120F0002B00D110BD064B002BFBD09847F9E70B
S21401210000000000E4020020207603002076030091
S2140121100000000080B584B000AF78607B681B6863
S214012120FB60FB685B7EDBB25BB2002B01DA01234E
S21401213000E000231800BD4604B080BD80B584B021
S21401214000AF78607B681B68FB60C0467B68180040
S2140121500B4B9847031EF9D1FB681B7BDBB20222AF
S2140121601343DAB2FB681A73C0467B681800044B47
S2140121709847031EF9D1C046BD4604B080BDC0468F
S2140121801521010080B584B000AF78600A00FB1C01
S2140121901A707B681B68FB60FB68FA1C12789A75DC
S2140121A0C046BD4604B080BD80B584B000AF020015
S2140121B0FB1D1A70FB1D1A78474B9200D358FB6023
S2140121C0FB681B681B7EDAB2FB681B68DB7DDBB233
S2140121D01340DBB2BB60BB680122134045D0FB68ED
S2140121E01B6801221A76C046FB6818003B4B9847CD
S2140121F0031EF9D1FB685B69991CFA685161FA689C
S2140122001268528B92B21A80FB681B8B9BB2013B01
S2140122109BB2FA68191C1183002B08D0FB685B7F00
S214012220002B22D0FB6818002D4B98471DE0FB6859
S214012230012118002B4B9847FB681B7FDBB2052B4F
S21401224013D1FB6800221A77FB68DB7E1A00012394
S21401225013400AD0FB689B7E1A000123134004D06A
S214012260FB689B68FA6810009847BB680422134015
S21401227014D0FB681B6804221A76FB68DB7E1A0002
S214012280022313400AD0FB689B7E1A0002231340E8
S21401229004D0FB68DB68FA6810009847BB68022226
S2140122A0134014D0FB681B6802221A76FB68DB7E9B
S2140122B01A00042313400AD0FB689B7E1A000423ED
S2140122C0134004D0FB681B69FA6810009847C046A3
S2140122D0BD4604B080BDC0468041002015210100E6
S2140122E03D2101008521010080B500AF0020024B91
S2140122F09847C046BD4680BDA921010080B582B081
S21401230000AF0200FB1D1A70074AFB1D1B7819005F
S2140123101F230B40012199400B0019008023D15047
S214012320C046BD4602B080BD00E100E080B584B085
S21401233000AF0200FB1D1A70FB1D1A78374B920086
S214012340D358FB60FB681B68BB60BB689B79DBB23C
S2140123501A00012313400ED0BB6801229A71FB6854
S2140123601433002B07D0FB685B7C002B03D0FB6883
S2140123709B6900209847BB689B79DBB21A00022351
S214012380134047D0BB6802229A71FB689B899BB2B7
S214012390002B33D0FB689A68FB68DB899BB2591C1B
S2140123A088B2F968C8815B00D3181B889AB2BB68EB
S2140123B09A81FB689B899BB2013B9AB2FB689A8122
S2140123C0FB689B899BB2002B18D1FB682022002159
S2140123D09954BB6802221A71BB6802229A711920AD
S2140123E00F4B9847FB681433002B07D0FB689B7C88
S2140123F0002B03D0FB68DB6900209847FB68143389
S214012400002B07D0FB681B7C002B03D0FB685B69A5
S21401241000209847C046BD4604B080BD84410020D8
S214012420FD22010080B500AF0020024B9847C04650
S214012430BD4680BD2D23010080B500AF024B9847F5
S214012440C046BD4680BDC046E93D020080B500AF2E
S214012450024B9847C046BD4680BDC0463D3E020081
S21401246080B586B000AF494B9847494B1B8C9BB251
S214012470DAB21723FB180F210A401A701723FB182C
S2140124801A78444B9200D3583B61414A3B691B780A
S2140124900F210B40D9B23F23D1543D490F23FB18DE
S2140124A04E228A5C1A703B691B783B4A1B01D31883
S2140124B002331B889BB2BB603B691B78374A1B0102
S2140124C0D31802331B889BB27B60BA687B68D21A2A
S2140124D03B695A610F23FB181B780122134016D063
S2140124E02B4A4E230121D1543B6910225A743B6971
S2140124F01B7C1A000123134042D03B695B68002B0A
S2140125003ED03B695B683A691000984738E00F2374
S214012510FB181B780222134016D01D4A4E230221B7
S214012520D1543B6900225A743B691B7C1A00022372
S214012530134025D03B699B68002B21D03B699B68E3
S2140125403A69100098471BE00F23FB181B780422FA
S214012550134015D00E4A4E230421D1543B6906225E
S2140125605A743B691B7C1A000423134008D03B694C
S214012570DB68002B04D03B69DB683A69100098479A
S214012580074B9847C046BD4606B080BD39240100BA
S2140125900048004150030020904100200003002025
S2140125A04D24010080B582B000AF154B1B697B60DE
S2140125B0144B9B693B60124B9A683B681A43104B5D
S2140125C09A60104B104A9A6108E07B685A687B68EB
S2140125D01B68180090477B689B687B607B68002BB4
S2140125E0F3D1074BDB683B60054B9B683A68D243E7
S2140125F01A40034B9A60C046BD4602B080BDC04635
S2140126000000002000040042FFFF0F0F80B582B0DB
S21401261000AF02003960FB1D1A70FB1D1B78012BF1
S2140126200AD0022B0FD0002B14D10E4B0D4A916904
S2140126303A680A439A610FE00A4B0A4AD1693A6836
S2140126400A43DA6108E0074B064A116A3A680A4308
S2140126501A6201E0172300E000231800BD4602B00D
S21401266080BDC0460004004080B500AF02210220B4
S214012670074B9847074B01221A70C046054B1B783B
S214012680DBB21A0001231340F8D1C046BD4680BD17
S2140126900D2601000004004280B584B000AF7860CA
S2140126A07B681B68FB60FB68DB69072213405A1EC8
S2140126B09341DBB21800BD4604B080BD80B582B040
S2140126C000AF7860C0467B681800044B9847031E2D
S2140126D0F9D1C046BD4602B080BDC046992601006C
S2140126E080B584B000AF78607B681B68FB60FB68D0
S2140126F01B681B01DB0FDBB21A000B23FB18511EF4
S2140127008A411A700823FB187A68528B1A807B68F4
S2140127109B8B9AB20823FB180821791809888A1A14
S2140127201A807B689B8B9BB2013B9AB27B689A832B
S2140127300B23FB181B78002B10D07B68DB7A002B51
S2140127401CD07B689B8B9BB2012B17D1FB685B6807
S2140127508022D2021A43FB685A600FE07B68DB7A5C
S214012760002B0BD07B689B8B9BB2002B06D1FB68A2
S2140127705B688022D2021A43FB685A607B689B8B97
S2140127809BB2002B0ED17B689B7A002B0AD07B680C
S21401279018000E4B9847FB685B68C02292021A43EA
S2140127A0FB685A607B681800084B98477B681A6A72
S2140127B00823FB181B88D318FA682821525CD2B26A
S2140127C01A70C046BD4604B080BDC046BD26010095
S2140127D080B584B000AF78607B681B68FB60FB68DF
S2140127E05B8B9BB21A000423134004D07B6825221E
S2140127F01E21995424E00A23FB187A68528B1A800A
S2140128007B689B8B9AB20A23FB180A2179180988E0
S2140128108A1A1A807B689B8B9BB2013B9AB27B68B3
S2140128209A837B681800084B98477B681A6A0A23C4
S214012830FB181B88D3181B78D9B2FB682822995439
S214012840BD4604B080BDC046BD26010080B584B03B
S21401285000AF78607B681B68FB60FB681B7EDBB2A1
S2140128601A00012313402BD0FB6801221A76FB685D
S2140128705B8B9BB21A000223134004D07B6825228F
S214012880412199541CE0FB685B8B9BB21A00042320
S214012890134015D07B682522182199547B680022A5
S2140128A09A837B689B7A002B0AD07B681800134BAF
S2140128B09847FB685B68C02292021A43FB685A601D
S2140128C07B689B8B9AB27B685A837B6825229B5CCC
S2140128D0DBB2052B0ED17B6824229B5CDBB2002B7E
S2140128E004D17B681800064B984703E07B68180004
S2140128F0044B9847C046BD4604B080BDBD260100C6
S214012900D1270100E126010080B584B000AFF86050
S214012910B960FB1D1A70FB1D1B78FA6802339B0019
S214012920D3180433BA681A60FB681B7EDBB25AB24E
S214012930FB1D1B78012199400B005BB213435BB270
S214012940DAB2FB681A76C046BD4604B080BD000008
S21401295080B584B000AF786039607B681B68FB6027
S2140129603B685B7A002B06D03B689A7A7B6811003D
S21401297018001E4B9847FB685B681D4A1A40FB68A7
S2140129805A603B685A687B681A623B685A887B685B
S2140129909A837B682422002199547B68252205218D
S2140129A09954FB6803229A753B681B7A002B0DD05D
S2140129B03B681B885A003B685B7A9B0313431A00EB
S2140129C080231B021A43FB685A6209E03B681B8896
S2140129D05A003B685B7A9B0313431A00FB685A62F2
S2140129E000231800BD4604B080BDC0463D59010015
S2140129F0FFFFFBFF80B582B000AF786039607B686F
S214012A009B8B9BB2002B01D005230CE07B68012237
S214012A109A727B680122DA723A687B6811001800A4
S214012A20034B984703001800BD4602B080BDC04660
S214012A305129010080B586B000AF0200FB1D1A7057
S214012A40FB1D1A78934B9200D3587B617B691B68F8
S214012A503B613B691B681B01DB0FDBB21A000F23CE
S214012A60FB18511E8A411A700E23FB187A69527E92
S214012A701A707B691B7EDAB20E23FB180E217918B9
S214012A8009780A401A707B695B8B9BB2002B09D1CF
S214012A907B699B8B9BB2002B04D07B6918007E4B15
S214012AA0984770E07B695B8B9BB2002B39D07B69C2
S214012AB09B8B9BB2002B34D17B6925229B5CDBB2BE
S214012AC0052B2ED17B6924229B5CDBB2002B28D1FF
S214012AD03B6903221A757B6900225A837B6925228A
S214012AE0002199547B699B7A002B0BD07B691800D7
S214012AF06A4B98473B695B68C02292021A433B695E
S214012B005A6002E03B6901221A760E23FB181B78F5
S214012B100122134037D07B69DB687A691000984739
S214012B2031E07B695B8B9BB2002B2CD07B699B8B46
S214012B309BB2002B27D03B695B8B9BB21A002023EC
S214012B40134011D10F23FB181B7801225340DBB22F
S214012B50002B04D17B699B8B9BB2012B04D07B6934
S214012B602522412199540EE07B6924229B5CDBB22D
S214012B70002B04D17B691800494B984703E07B6919
S214012B801800484B98477B695B8B9BB2002B47D05C
S214012B907B699B8B9BB2002B42D17B6925229B5C78
S214012BA0DBB2052B3CD17B6924229B5CDBB2012B7B
S214012BB036D13B691B7EDBB21A000223134002D0DA
S214012BC03B6902221A763B6903221A757B69002249
S214012BD05A837B692522002199540E23FB181B7802
S214012BE0022213400BD07B6924229B5CDBB2012BB3
S214012BF005D17B691B697A691000984710E00E239E
S214012C00FB181B78012213400AD07B6924229B5CA7
S214012C10DBB2002B04D17B69DB687A691000984728
S214012C207B6925229B5CDBB2052B2ED07B69252296
S214012C309B5CDBB2002B28D03B6903221A757B69AB
S214012C4000225A837B6900229A837B6925229B5C3A
S214012C50DBB2412B0ED07B699B7A002B0AD07B69B5
S214012C6018000E4B98473B695B68E022D2021A4374
S214012C703B695A600E23FB181B780422134004D0CC
S214012C807B695B697A6910009847C046BD4606B005
S214012C9080BDC046785500204D280100BD260100A4
S214012CA0D1270100E126010080B500AFBFF34F8FA9
S214012CB0024B034ADA60BFF34F8FFEE700ED00E0F8
S214012CC00400FA0580B500AF024B9847C046BD46E2
S214012CD080BDC046A92C010080B586B000AF7860E3
S214012CE0984B1800984B9847984B1800964B984766
S214012CF0974B1800944B9847964B1800924B984761
S214012D00954B1800904B9847944B18008E4B98475C
S214012D101723FB1800221A70914B1800914B984705
S214012D20032200210120904B984702008F4B1A6026
S214012D308E4B1B68002B07D18D4B190003208D4B42
S214012D40984700208C4B98470C23FB1818008B4B98
S214012D5098470C23FB181B780A2B04D00C23FB186E
S214012D601B780D2B37D1864B18007E4B9847854B29
S214012D7000221A70844B00221A708449844B312237
S214012D801800844B9847824B31220021995482497E
S214012D907E4B64221800814B984703003B617E4BB3
S214012DA06322002199547C4B18006E4B98473B696F
S214012DB0002BECD11723FB1800221A70734B32221A
S214012DC000211800764B9847734B642200211800A7
S214012DD0734B9847B5E06B4B1B78002B59D06A4B69
S214012DE01B78032B0CD8684B1B785A1CD1B2664A49
S214012DF011701A000C23FB1819786A4B995405E0D8
S214012E00604B00221A70604B00221A705E4B1B78D2
S214012E10012B99D9644A634B11001800634B9847FC
S214012E20031E2FD06249594B1B221800614B98474D
S214012E30564B18004B4B98471723FB1800221A7065
S214012E40524B322200211800554B984750494F4BA0
S214012E50312218004F4B98474C4B1800564B984759
S214012E600300302B06D84A4B1800534B98470300F3
S214012E70DAB200E031221723FB181A70434B180010
S214012E80384B98473F4B00221A703F4B00221A706E
S214012E905AE70C23FB181B780D2B00D154E70C23A3
S214012EA0FB181B78082B04D00C23FB181B787F2BF0
S214012EB01CD10823FB18414A12681A600823FB1824
S214012EC01800284B98471723FB181B78002B37D080
S214012ED01723FB181A781723FB18013A1A701723C1
S214012EE0FB181B78294A0021D15429E00C23FB1832
S214012EF01B781B2B06D1234B01221A70224B002272
S214012F001A7021E71723FB181B78312B0ED81723CD
S214012F10FB181B780C22BA1811781C4AD1541723B7
S214012F20FB181A781723FB1801321A700C23FB18AA
S214012F3000225A700C23FB1818000A4B984703E727
S214012F40C04601E7AC370300855A0100FC37030091
S214012F50BC370300CC370300DC370300EC37030033
S214012F6080350300A9B9010049800100E041002035
S214012F70DC36030095BA0100359E0100C12F010021
S214012F80FC3603007403002075030020AC03002008
S214012F90780300208B250300E0030020F55A01008A
S214012FA0A32103004404002000370300A5240300E6
S214012FB004370300612403005B2503000C3703007C
S214012FC080B582B000AF7860094B1A6801235B4276
S214012FD019001000074B98470300012B03D17B68AB
S214012FE01800054B9847C046BD4602B080BDC04696
S214012FF0E04100200190010045BA010080B500AF14
S2140130000A4B00221A600A4B1B68084A1100180076
S214013010084B9847054B1B68002B03D0064B8022B4
S21401302052051A60C046BD4680BDC0464804002011
S214013030E04100207989010004ED00E090B587B0F9
S21401304000AFF860B9607A601723FB181B221A706C
S2140130501723FB181B78084A08480F21084CA0477D
S214013060064AB968FB681800054B98470023180004
S214013070BD4607B090BDC04610370300640300206C
S214013080FD23030080B584B000AFF860B9607A60B4
S2140130900220074B9847FA235B011800054B984717
S2140130A0054B984700231800BD4604B080BDC046B6
S2140130B049510100559D0100C52C010080B584B021
S2140130C000AFF860B9607A60034B98470023180098
S2140130D0BD4604B080BDC046C52C010080B584B095
S2140130E000AFF860B9607A60084B1800084B984743
S2140130F0084B1800064B9847074B1800044B984797
S21401310000231800BD4604B080BDC0461837030032
S214013110A9B901002C3703003837030080B586B003
S21401312000AFF860B9607A600B4B984703007B618B
S2140131300A4B18000A4B98477A690A490A4B180045
S2140131400A4B9847084B1800054B98470023180070
S214013150BD4606B080BDC0469DA1010040370300B4
S214013160A9B9010064370300640300206124030049
S21401317090B58FB000AFF860B9607A601823FB187D
S21401318000221A701823FB1800225A701823FB1805
S21401319000221A701823FB1800225A701C23FB18F1
S2140131A000221A701C23FB181422BA189A601C23DA
S2140131B0FB180122DA811C23FB181822BA185A6060
S2140131C01C23FB1801229A812C4B18002C4B984784
S2140131D000237B6346E07B6B2A4A2B480F212B4C4E
S2140131E0A047294B1800264B984700233B632FE046
S2140131F07B6BDAB23B6BDBB2D318DBB2DB18DAB22D
S2140132001C23FB181A701C23FB1864211800204B82
S21401321098470300FB62FB6A002B0CD11C23FB18AA
S2140132201B78184A18480F21184CA047164B18004F
S214013230134B984709E0144B164A11881980927867
S2140132409A70114B18000E4B98473B6B01333B634A
S2140132503B6B0F2BCCDD104B1800094B98477B6B53
S21401326010337B637B6B7F2BB5DD0B4B1800044B58
S214013270984700231800BD460FB090BD6C37030079
S214013280A9B90100A037030064030020FD23030051
S21401329019380100A8370300FC36030080B582B058
S2140132A000AF0200FB1D1A70064BFA1D12781100C2
S2140132B01F220A40012191400A001A60C046BD46FD
S2140132C002B080BD00E100E080B584B000AF786058
S2140132D07B681B68FB60FB68DB69072213405A1E8C
S2140132E09341DBB21800BD4604B080BD80B582B004
S2140132F000AF7860C0467B681800044B9847031EF1
S214013300F9D1C046BD4602B080BDC046C9320100F3
S21401331080B582B000AF78607B6864221A607B68F3
S2140133201B4A5A607B6800229A607B6800221A73E7
S2140133307B6800221A767B68802292031A617B687A
S21401334001225242DA827B68012252429A827B68CB
S2140133500022DA617B6800221A627B68242200213F
S21401336099547B6800229A627B682C22002199542A
S2140133707B682D22002199547B682E2200219954C6
S2140133807B68D7221A86C046BD4602B080BDC046BD
S214013390480D000080B584B000AF78607B681B687C
S2140133A0BB600023FB607B681800144B9847BB6822
S2140133B01B6802221A43BB681A607B681B681800E8
S2140133C00F4B9847030018000E4B98470CE0FB681C
S2140133D00133FB607B68DB881A00FB689A4203D8DE
S2140133E0BB6810225A8306E0BB685B8B9BB21A004F
S2140133F010231340EBD0BD4604B080BDED32010072
S214013400BD5202009D32010080B582B000AF7860E7
S2140134100A00FB1C1A707B685B7EDBB25AB2FB1C8F
S2140134201B78012199400B005BB213435BB2DAB201
S2140134307B685A76C046BD4602B080BD90B591B055
S21401344000AF0023FB633A23FB1800221A703B1DD2
S2140134501800214B98473B1D204ADA613B1D204A44
S2140134601A623B1DFA229200DA823B23FB180322E2
S2140134701A701EE03A23FC183A1D1A491A4B180016
S2140134801A4B9847030023703A23FB181B78002B2E
S21401349004D13A23FB181B78FB630FE0124B18008C
S2140134A0134B98473B23FB181A783B23FB18013A2A
S2140134B01A703B23FB181B78002BDBD1FB6B002B10
S2140134C004D1094B18000B4B984700E0C046FB6B34
S2140134D01800BD4611B090BD11330100020008006E
S2140134E00200090000080042E8410020415701009F
S2140134F0755801009533010080B584B000AF78603F
S2140135000E4B00221A700D4B01229A600023FB60BD
S2140135100B4B1B680C22BA1811001800094B984770
S214013520094B00221A70FB68002B03D0074B802240
S21401353052051A60C046BD4604B080BD5004002046
S21401354010420020798901004C04002004ED00E0BF
S21401355080B584B000AF78600E4B00221A700D4B18
S21401356001229A600023FB600B4B1B680C22BA18E1
S21401357011001800094B9847094B00221A70FB6886
S214013580002B03D0074B802252051A60C046BD4669
S21401359004B080BD5004002010420020798901004B
S2140135A04C04002004ED00E080B584B000AF7860E4
S2140135B00E4B00221A700D4B01225A600023FB604D
S2140135C00B4B1B680C22BA1811001800094B9847C0
S2140135D0094B01221A70FB68002B03D0074B80228F
S2140135E052051A60C046BD4604B080BD5004002096
S2140135F010420020798901004C04002004ED00E00F
S21401360080B500AF1149124B00221800114B9847A4
S2140136100F4B00211800104B984710490C4B012204
S21401362018000C4B98470A4B012118000A4B984783
S2140136300B49074B02221800064B9847044B022100
S2140136401800054B9847C046BD4680BDF9340100B9
S214013650E841002009290100093401005135010023
S214013660A935010080B582B000AF00237B60144B02
S214013670984703007B607B68002B1AD1114B984753
S2140136800120114B98470200104B1A6003220021BB
S21401369001200F4B984702000E4B1A600B4B1B681C
S2140136A0002B03D00B4B1B68002B03D106237B603A
S2140136B000E0C0467B681800BD4602B080BDC0462B
S2140136C03D34010001360100B1820100E4410020D1
S2140136D0498001001042002090B585B000AF7860A7
S2140136E00023FB607B68002B03D07B685B68002BA4
S2140136F003D108235B42FB601FE07B681B789AB20C
S214013700104B1A807B685A680E4B5A607B68DA89C0
S2140137100C4B5A800B23FC180A4A0B4B110018005D
S2140137200A4B9847030023700B23FB181B78002BCA
S21401373003D006235B42FB60C046FB681800BD460B
S21401374005B090BD14420020E8410020F529010093
S21401375090B583B000AF00237B60094B1868002347
S21401376000220021074CA0470300012B02D014239E
S2140137705B427B607B681800BD4603B090BDC046C7
S214013780E4410020F182010080B584B000AF78608A
S2140137900023FB60084B1B687A6811001800074B72
S2140137A098470300012B02D01D235B42FB60FB6898
S2140137B01800BD4604B080BDE44100200190010020
S2140137C080B584B000AF78600023FB60044B1A68B4
S2140137D07B681A60FB681800BD4604B080BDC04611
S2140137E01042002080B500AF024B1B781800BD4682
S2140137F080BDC0464C04002080B582B000AF0200F8
S214013800FB1D1A70034BFA1D12781A70C046BD468E
S21401381002B080BD4C04002080B584B000AF786053
S21401382039600023FB600023BB6096235B00180011
S214013830284B98470300FB60FB68002B38D1082310
S214013840FB181800244B98470300FB60FB68002B0D
S21401385030D17B681800214B98470300FB60FB685A
S214013860002B2AD1BB683A68110018001C4B9847F8
S2140138700300012B11D11B4B9847031E11D00020CA
S214013880194B9847FB68002B03D021235B42FB6052
S21401389014E003235B42FB6010E003235B42FB6002
S2140138A00CE0124B98470200FB681343FB6002E0F2
S2140138B0C04600E0C046FB6807E0C0460B4B984791
S2140138C00200FB681343FB60FB681800BD4604B0AA
S2140138D080BDC04689370100C1370100D9360100D5
S2140138E001900100E5370100F93701005137010069
S2140138F080B584B000AF0200FB1D1A700F23FB18C1
S214013900FA1D1278D2091A700E23FB18FA1D1278C6
S21401391052091A700D4BBB600F23FB181B78002B46
S2140139200FD10F23FB181B789B0010229446BC4432
S2140139306344083B1A680E23FB181B78DB01D31877
S21401394000E000231800BD4604B080BD00440041DD
S21401395080B582B000AF0200FB1D1A70FB1D1B78FC
S2140139601800034B984703001800BD4602B080BDFF
S214013970F138010080B584B000AF0200FB1D1A705B
S214013980FB1D1B7818000B4B98470300FB60FB1DC3
S2140139901B781F22134001229A401300BB60FB686C
S2140139A01B6ABA6813405A1E9341DBB21800BD4623
S2140139B004B080BD5139010080B584B000AF02006B
S2140139C0FB1D1A70BB1D0A1C1A70FB1D1B78180004
S2140139D00D4B98470300FB60FB1D1B781F2213400D
S2140139E001229A401300BB60BB1D1B78002B03D03D
S2140139F0FB68BA689A6102E0FB68BA685A61C04619
S214013A00BD4604B080BDC0465139010080B584B0C2
S214013A1000AF0200FB1D1A70FB1D1B781800094B36
S214013A2098470300FB60FB1D1B781F2213400122F1
S214013A309A401300BB60FB68BA68DA61C046BD46AF
S214013A4004B080BD5139010080B500AF024B0022A1
S214013A501A70C046BD4680BD7904002080B582B08C
S214013A6000AF0200FB1D1A70FB1D1B785BB2DB4327
S214013A705BB2064A127852B213405BB2DAB2034B1B
S214013A801A70C046BD4602B080BDC046790400200B
S214013A9080B582B000AF0200FB1D1A70054B1A7884
S214013AA0FB1D1B781343DAB2024B1A70C046BD46A3
S214013AB002B080BD7904002080B582B000AF02005C
S214013AC0FB1D1A70064B1B78FA1D12781340DBB2E9
S214013AD05A1E9341DBB21800BD4602B080BDC046F7
S214013AE07904002090B585B000AF786039607B68B6
S214013AF0002B02D03B68002B01D1002313E00F23DB
S214013B00FC1839680A4B002218000A4B9847030034
S214013B102370074B1800084B98470F23FB181B7898
S214013B205A425341DBB21800BD4605B090BDC046AF
S214013B30AC06002041B5020041BF020080B59EB030
S214013B4000AFF860B960FB1D1A707623FB180122DE
S214013B501A807423FB1800221A806E23FB18002299
S214013B601A807223FB1800221A802423FB181800DF
S214013B7041231A000021924B98471823FB1818007E
S214013B8009231A0000218E4B98471423FB180022A4
S214013B901A600023BB667123FB1800221A70BB68EB
S214013BA0002B01D1002306E1BA68FB68110018005A
S214013BB0844B984703001A0001235340DBB2002BC5
S214013BC001D00123F7E0BB6818007F4B984703003C
S214013BD0402B01D90023EEE0BB682E2118007B4B59
S214013BE098470300BB66BB6E002B52D0BB6E180015
S214013BF0754B984702006E23FB181A806E23FB183C
S214013C001B88072B37D87123FB1801221A70BA6E4E
S214013C101823FB18110018006D4B9847BB68180055
S214013C20694B984702006E23FB181B88D31A3C2B5E
S214013C3011D97423FB186E22BA1812883C218A1AED
S214013C401A807423FB181A88B9682423FB181800F5
S214013C50604B98472AE0BA6EBB68D21A7423FB18E9
S214013C601A807423FB181A88B9682423FB181800D5
S214013C70584B98471AE07423FB183C221A80742389
S214013C80FB181A88B9682423FB181800514B98476B
S214013C900CE07423FB183C221A807423FB181A8844
S214013CA0B9682423FB1818004A4B98477423FB185D
S214013CB01B887422BA18591C11801A002423FB1879
S214013CC02D2199547623FB1800221A807223FB18A3
S214013CD001221A8010E07223FA187223FB181B883F
S214013CE0191C8900CB18DB1813807623FB181A8859
S214013CF07623FB1801321A807623FB181B88022BC9
S214013D00E9D97623FB1801221A804BE07623FB18AB
S214013D101A8831491423FB181800304B984774232E
S214013D20FB181B882422BA18D3181422B9180322A8
S214013D301800284B98477123FB181B78002B0CD0D2
S214013D407423FB181B8803332422BA18D3181822AD
S214013D50BA18110018001E4B98472423FA18FB685E
S214013D6011001800174B984703001A00012353400F
S214013D70DBB2002B0FD0FB1D1A78BB6800211800A0
S214013D800F4B98472423FA18BB6811001800104BF4
S214013D90984701230FE07623FB181A887623FB1831
S214013DA001321A807623FA187223FB1812881B88B0
S214013DB09A42ABD300231800BD461EB080BDC04654
S214013DC0A3210300E53A01005B250300B5250300A6
S214013DD00F2503008B2503001C3803006124030014
S214013DE090B585B002AF0120234B984703001A0017
S214013DF001235340DBB2002B05D0204B19000120D4
S214013E001F4B984734E002201B4B984703001A00CB
S214013E1001235340DBB2002B05D01A4B19000120B9
S214013E20174B984724E00420134B9847031E05D0F0
S214013E30154B19000120124B984719E008200E4B2C
S214013E409847031E05D0114B190001200C4B9847CB
S214013E500EE00F4B19000120094B98470D490E48FB
S214013E6000230093002301220C4CA04703007B6033
S214013E70BD4603B090BDC046B93A010024380300E0
S214013E8095BA0100503803007C380300A8380300B7
S214013E90D4380300003903007842002095EB020075
S214013EA0B0B586B000AF786039607B68002B02D071
S214013EB03B68002B05D1584B19000120574B9847FA
S214013EC0A6E00820564B984703001A0001235340EA
S214013ED0DBB2002B55D000237B61524B30221A7087
S214013EE0504B3A225A70504B7B6102E07B69013B92
S214013EF07B617B691B782F2BF8D17B6918004B4BB4
S214013F0098470300012B24D97B6901337B617A69C9
S214013F10474B11001800474B98474249464B4022F1
S214013F201800464B98473F4A454B190001203B4B2A
S214013F3098471323FC183B493F4B0A221800414B74
S214013F409847030023701323FB181B78002B12D00D
S214013F5008E03D4B19000120304B984720203B4B91
S214013F60984755E01323FB181A78394B190001209E
S214013F702A4B98474CE0374B00221A600820334BF7
S214013F8098477B68002B43D00023FB601323FC1863
S214013F900C23FB183A68796827482F4DA847030079
S214013FA023701323FB181B78002B0CD0224B180010
S214013FB02A4B98472020254B9847294B190001206A
S214013FC0164B984724E0234B1A68FB68D218214BFE
S214013FD01A60204B1A68234B1B68234901200F4C9B
S214013FE0A0471C4B1A681F4B1B689A4210D3124BF2
S214013FF018001A4B98471D4B19000120074B98478C
S214014000002117201A4B98471020104B9847C0469E
S214014010BD4606B0B0BDC0462039030095BA0100C2
S214014020B93A0100940000201E3903005B25030005
S214014030960000200F250300AC0600203D3B010042
S2140140408439030041B5020044390300913A010066
S214014050AC390300D406002071BA020041BF020049
S214014060E0390300D00600201C3A0300503A030052
S214014070B939010090B585B000AFF860B9607A60D3
S214014080BB68042B00D977E0BB689A003C4BD31879
S2140140901B689F463B4B190001203B4B98476BE042
S2140140A03A4B19000120384B98470420384B984763
S2140140B062E07B681B881A007B685B6835490120D3
S2140140C0314CA0477B681B88C82B0DD17B685A688A
S2140140D0314B1A60314B00221A607B685A68802384
S2140140E09B009A4243D803E02020294B984743E09F
S2140140F07B689A687B685B6819001000284B9847B4
S2140141001020234B984732E07B685A687B681B680F
S21401411019001000224B98477B681B7A002B28D089
S21401412010201B4B984724E07B681A681D4B19002A
S2140141300120154B98477B681B680B331BD1082061
S214014140194B9847031E06D0184B1800184B984772
S2140141500820184B98470420134B9847031E02D09B
S2140141600420144B9847144B9847C04603E0C046BA
S21401417002E0C04600E0C046BD4605B090BDC04660
S214014180A8410300843A030095BA0100BC3A030033
S214014190913A0100E83A0300D0060020D406002038
S2140141A0A13E0100243B0300B93A0100AC06002001
S2140141B041BF02005D3A0100E13D010080B582B0D9
S2140141C000AF3A60FB1D021C1A70BB1D0A1C1A7058
S2140141D03A68BB1D1978FB1D1B785BB21800034BB0
S2140141E09847C046BD4602B080BDC046A5E802005D
S2140141F0B0B586B004AF786039603B68FF221340E3
S2140142001C003B681B0A1A00FF2313403A68120C75
S2140142101100FF220A403968090E0D007868094925
S214014220029501920093230002000120064CA0474C
S2140142303A687B6811001800044B9847C046BD4693
S21401424002B0B0BD543B030095BA010009EA020072
S21401425090B587B002AF02003960FB1D1A70FB1DD6
S2140142601B782C2B02D0322B3DD06FE03B68FB60D5
S214014270FB681B78012B07D1364B19000120364B02
S2140142809847364B98475EE0FB681B78002B5AD15F
S214014290334B19000120304B98470220314B984789
S2140142A00820314B9847031E06D0304B1800304B80
S2140142B0984708202B4B984704202B4B9847031E02
S2140142C002D00420274B98472A4B012118002A4B7D
S2140142D098472A4A2A48FF230093130002221221F4
S2140142E0284CA0472FE03B68BB60BB681B781800D2
S2140142F0BB6801331B781C00BB6802331B781A00AD
S214014300BB6803331B782049019300922300020007
S2140143100120114CA04702201C4B98471C4B1B78D0
S214014320012B02D11B4B98470FE01B4A114B110082
S21401433018001A4B9847031E07D0194B1900012085
S214014340054B984701E0C04600E0C046C046BD4662
S21401435005B090BD843B030095BA010075000200CC
S214014360A43B03005D3A0100B93A0100AC06002007
S21401437041BF0200D806002051D50200C83B030009
S214014380D83B0300A1FB0100EC3B0300913A01007E
S21401439078040020E13D01000C3803001DD4020022
S2140143A0143C030090B583B000AF294B9847294BC6
S2140143B019000120284B9847FC1D0020274B9847E1
S2140143C003002370FB1D1B78012B10D1244B190011
S2140143D00120214B9847234B190001201E4B98477B
S2140143E0C0460020204B98470300022BF9D1FB1D45
S2140143F01B78002BE0D11D4B19000120164B984766
S2140144008C239A001A4B002118001A4B9847BC1DA2
S214014410174B19000020184B984703002370BB1D4B
S2140144201B780B2B07D1BB1D1A78144B19000120E2
S214014430094B984708E0124B19000120064B984794
S2140144400120104B9847C046BD4603B090BDC046FC
S214014450ADC80100383C030095BA010089CD0100C2
S214014460703C0300983C0300FDC80100CC3C0300EF
S2140144707C040020A3210300E9B40200F03C030001
S214014480203D0300913A010080B582B000AF3B1D8C
S2140144901800084B98473A1D074B11001800074BA8
S2140144A09847054B1800064B9847C046BD4602B0D4
S2140144B080BDC04639000300204200205D00030095
S2140144C04901030080B588B000AF3B001800154BCA
S2140144D098473B00802292001A613B00124A5A60BC
S2140144E03B0050221A803B0000229A703A000F4B84
S2140144F0110018000E4B98470300FB61FB69002B67
S21401450006DAFA690B4B190001200B4B9847FEE7B8
S2140145100A4A064B11001800094B9847C046BD468B
S21401452008B080BDCDE6020020420020784200207F
S21401453019E70200443D030095BA010075400100E9
S21401454005E8020080B582B000AF3A60FB1D021C90
S2140145501A70BB1D0A1C1A703A68BB1D1978FB1D20
S2140145601B785BB21800034B9847C046BD4602B0A5
S21401457080BDC046C5D3020080B582B000AF78606A
S21401458039603A687B6811001800034B9847C046AB
S214014590BD4602B080BDC046F9D3020090B589B0D1
S2140145A002AF78601023FB1800221A701023FB1844
S2140145B000225A701023FB1800229A707B685B68F1
S2140145C05A687B685B689B6824490120244CA04795
S2140145D07B681B689B68234904221800224B984776
S2140145E0031E37D17B681B689B680433FB6000237E
S2140145F07B6115E07C69631C7B61FB680C22B91842
S2140146000A221800194B98470300DAB21023FB1848
S2140146101A55FB681B782C2B0AD1FB680133FB600B
S2140146207B69022B05DCFB681B78002BE2D100E0DE
S214014630C0461023FB181B781A001023FB185B7862
S21401464018001023FB189B780949009303000120EA
S214014650034CA047C046BD4607B090BD8C3D030045
S21401466095BA0100943D0300692503001527030050
S2140146709C3D030090B58BB000AF78600C23FB180F
S2140146801422FF211800414B98477B681B689B68E2
S2140146903F49092218003F4B9847031E59D13E4B0C
S2140146A0190001203D4B98477B685B685A687B6818
S2140146B05B689B683A490120384CA0477B681B68B9
S2140146C0DA687B681B689B6836490120334CA04733
S2140146D000237B627B681B689B680933BB6015E01F
S2140146E07C6A631C7B62BB680822B9180A22180020
S2140146F02D4B98470300DAB20C23FB181A55BB68FA
S2140147001B782C2B0AD1BB680133BB607B6A132B49
S21401471005DCBB681B78002BE2D100E0C046234BCA
S214014720190001201D4B984700233B620DE00C2326
S214014730FA183B6AD3181B781A001D4B1900012082
S214014740164B98473B6A01333B623B6A132BEEDDFF
S21401475018E0184B19000120104B98477B685B68DE
S2140147605A687B685B689B680D4901200B4CA04723
S2140147707B681B68DA687B681B689B6809490120AF
S214014780064CA047C046BD460BB090BDA321030012
S214014790B03D030069250300BC3D030095BA010046
S2140147A08C3D0300D83D030015270300E03D0300C0
S2140147B0F43D0300F83D030090B583B000AF786088
S2140147C0094B19000120094B98477B685B685A68BA
S2140147D07B685B689B6806490120044CA047C0467D
S2140147E0BD4603B090BDC046283E030095BA010001
S2140147F08C3D030080B582B000AF78601720034B74
S2140148009847C046BD4602B080BDC0460D3A01007D
S21401481090B58BB006AFF860B9607A60BB68012BC3
S2140148203BD0052B64D0002B00D067E07B681B686B
S214014830002B25DB334B19000120334B98473349B6
S214014840334AF86800230593002304930023039357
S21401485000230293002301932D4B00930B000121AB
S2140148602C4CA047031E05D02B4B19000120264BCC
S214014870984743E0294B19000120234B98473DE018
S214014880274A284B190001201F4B9847244AFB68EA
S21401489011001800244B984730E07B681B78002BEA
S2140148A01DD1224B2249F8680222224CA047224BF6
S2140148B02249F86802221F4CA047214B2149F8687B
S2140148C002221C4CA047204B2049F8680222194CB2
S2140148D0A0471F4B190001200B4B98470EE07B6841
S2140148E01B781A001B4B19000120074B984705E05F
S2140148F0194B19000120044B9847C046C046BD46D7
S21401490005B090BD8C3E030095BA0100A83E030099
S214014910B83E030065D40200C43E0300EC3E03002B
S2140149200C380300083F03001DD402007546010041
S214014930403F030005D602009D450100683E030086
S214014940B9470100543F0300F5470100683F0300E3
S214014950743F0300883F0300BC3F030080B588B066
S21401496000AF3B1D18001F4B98473B1D1E4A9A601F
S2140149703B1D80229200DA603B1D1C4A1A613B1DDA
S214014980802292005A613B1D194A1A803B1D194A22
S2140149909A803A1D184B11001800184B98470300CF
S2140149A0FB61FB69002B06DAFA69154B1900012039
S2140149B0144B9847FEE7144A0F4B11001800134B8F
S2140149C098470300FB61FB69002B06DAFA69104B76
S2140149D0190001200B4B9847FEE7C046BD4608B0BC
S2140149E080BDC0465DD302001007002010090020DC
S2140149F05B07000070170000D8060020ADD2020049
S214014A00D03F030095BA0100114801009DD3020072
S214014A100440030080B500AF154A164B110018007C
S214014A20154B9847031E08D0144B19000120144B50
S214014A30984702E00020134B98470E4B34229B5CAC
S214014A40002BF7D1104B9847104B01221A70104AD1
S214014A50104B11001800104B9847104B9847104BFD
S214014A609847104B03221A70C046BD4680BDC0460B
S214014A700C380300D806002051D50200143C030070
S214014A8095BA010085FB010041310200780400203F
S214014A90F1410100BD41010089310200F1300200FF
S214014AA0E13D01006404002090B585B000AF09E047
S214014AB000202A4B98472A4B18002A4B9847052076
S214014AC0294B98471020294B984703001A000123C9
S214014AD05340DBB2002B09D02020244B984703001B
S214014AE01A0001235340DBB2002BE1D1204B98473B
S214014AF0FA239B0018001C4B98471E4B00221A7085
S214014B003B001D4A13CA13C33B0030221A700F2301
S214014B10FC183900194B0A221800194B9847030054
S214014B2023700F23FB181B78002B08D00F23FB18CC
S214014B301A78144B19000020134B984703E0134BC7
S214014B401800134B98470D4B1800124B9847124B01
S214014B5000221A70C046BD4605B090BD85FB010017
S214014B602042002079020300559D0100B93A010058
S214014B70413102007804002070400300AC0600209A
S214014B8041B502004C40030095BA01005C400300A9
S214014B90A9B9010041BF02006404002080B500AF3E
S214014BA0184B9847184B9847184A194B110018008C
S214014BB0184B9847184B9847184B34229B5C012298
S214014BC05340DBB2002B0CD0154A144B11001800D1
S214014BD0144B9847031E04D0134B19000120134BA6
S214014BE098470E4B34229B5C002B04D0104B1900C7
S214014BF001200E4B98470F4B01221A70C046BD4646
S214014C0080BDC046413102005D4901007945010081
S214014C104545010089310200F1300200D806002026
S214014C200C3803001DD40200143C030095BA0100A1
S214014C307C4003006404002080B500AF00200C4BCC
S214014C4098470C4B18000C4B98470C4B98470C4B4D
S214014C5098470C4B98470C4B34229B5C002B04D096
S214014C60094B64211800094B9847C046BD4680BDD4
S214014C7085FB010020420020790203001D4D010042
S214014C80914C0100454E0100D80600204DD6020089
S214014C9090B585B002AF184B1B683900002218008A
S214014CA0164B98470300012B21D13B0000229B5E47
S214014CB01C003B0002229B5E19003B0004229B5E07
S214014CC00F4A10480193009123003F210E4CA04744
S214014CD00C4B18000D4B984704000A4A0C490D4826
S214014CE0002301930123009323000B4CA047C046E9
S214014CF0BD4603B090BDC04670040020A98B0100DC
S214014D009840030014000020FD2303005B250300E8
S214014D10543F0300D806002099D5020090B58BB009
S214014D2002AF394B1B680822B91800221800374B0E
S214014D3098470300012B63D1354B364A03CA03C398
S214014D4012881A800023FB612DE00823FA18FB69FC
S214014D50D3181B78FF2B2AD00823FA18FB69D3181F
S214014D601B782D4A380003212C4CA0473A00284BCB
S214014D70110018002A4B9847FB6901330822BA181C
S214014D80D35CFF2B0CD0FB690133132B08DC3B00F3
S214014D902C221A803A001E4B11001800204B98470F
S214014DA0FB690133FB61FB69132BCEDD00E0C046D6
S214014DB0174B18001B4B984703001A00144BD218C8
S214014DC0194B1000190003231A00184B9847104B73
S214014DD019000120164B9847164B19000120144B59
S214014DE098470B4B18000F4B98470400084A124986
S214014DF0124800230193012300932300104CA0477F
S214014E00C046BD4609B090BD6C040020A98B0100C8
S214014E1014000020B03D0300BC400300FD23030046
S214014E20E12403005B250300C04003006D2103005D
S214014E3095BA0100C4400300C8400300D80600200C
S214014E4099D5020090B585B002AFFC1D3720114BF5
S214014E50984703002370FB1D1B78002B03D00E4BD5
S214014E6031221A8002E00C4B30221A800A4B1800BD
S214014E700A4B98470400084A09490A480023019347
S214014E80012300932300084CA047C046BD4603B04B
S214014E9090BDC04675390100140000205B25030053
S214014EA0DC400300D806002099D5020090B58DB0ED
S214014EB002AF78606420774B9847774B984700227B
S214014EC004210520754B98470200754B1A60002295
S214014ED006210520714B98470200724B1A6000228A
S214014EE0142102206D4B984702006F4B1A60002276
S214014EF002210520694B984702006C4B1A60684BEB
S214014F001B68002B0BD0674B1B68002B07D0664B2A
S214014F101B68002B03D0654B1B68002B03D1644B29
S214014F201800644B9847644B1800624B9847634BD4
S214014F309847634B9847634B9847634B98470C23B6
S214014F40FB18182200211800604B9847604B9847C1
S214014F500C23FB185F4A1A602723FC180C23FB1846
S214014F6018005D4B9847030023702723FB181B7816
S214014F705BB2002B09D02723FB1800229A56574B09
S214014F8019000120564B9847FEE7564A564B190022
S214014F900120534B9847554B9847554A554B11009E
S214014FA01800554B9847554A4E48FF230093130067
S214014FB002221221524CA04706E00020514B98478E
S214014FC0514B1800514B98470220514B984703000C
S214014FD01A0001235340DBB2002BEED1FA239B00CB
S214014FE018002C4B98474B4B01221A70494B1B78E3
S214014FF05BB2012B0BD002DC002B05D010E0022B9C
S21401500008D0032B09D00BE0434B98470CE0434BE9
S214015010984709E0424B984706E0424B984703E021
S2140150203C4B00221A70C0460B23FB1800221A7054
S2140150301B4B1B680B22B918002218003A4B9847E5
S2140150400300012B05D10B23FB181B785AB2314BF9
S2140150501A70364B1B78DBB2002B17D0344B180076
S214015060344B98470400324A3349344800230193AD
S214015070012300932300324CA0472D4A314B1900DF
S2140150800120174B9847294B00221A706420014BC8
S2140150909847ABE7559D0100493A01004980010058
S2140150A068040020700400206C04002074040020B2
S2140150B0E8400300A9B9010010410300894401003A
S2140150C0C54401005D490100A5430100A321030079
S2140150D0B9DE01005142010091F901002C410300A3
S2140150E095BA0100D83B030058410300F130020095
S2140150F0794501004545010089310200C83B03009E
S214015100A1FB010085FB010020420020790203007B
S214015110B93A0100640400209D4B0100394C01009E
S214015120154A0100A94A0100A98B0100100B0020B5
S214015130540000205B2503007C410300D8060020B4
S21401514099D502009841030090B583B000AF0200E4
S214015150FB1D1A70FB1D1B78032B06D8054B186820
S214015160F91D00230A22044CA047C046BD4603B0E1
S21401517090BDC04668040020F182010080B582B06F
S21401518000AF78607B6800221A70C046BD4602B048
S21401519080BD000080B582B000AF02003960FB1D03
S2140151A01A70FB1D1B78012B0AD0022B0FD0002B87
S2140151B014D10E4B0D4A91693A680A439A610FE081
S2140151C00A4B0A4AD1693A680A43DA6108E0074B92
S2140151D0064A116A3A680A431A6201E0172300E098
S2140151E000231800BD4602B080BDC0460004004042
S2140151F080B582B000AF78607B6880221A707B68C9
S21401520000225A707B6801229A707B680022DA704D
S214015210C046BD4602B080BD80B500AF054B9B7849
S214015220DBB21A00022313405A1E9341DBB2180068
S214015230BD4680BD0020004180B500AF024B9847B7
S214015240C046BD4680BDC046E93D020080B500AF00
S214015250024B9847C046BD4680BDC0463D3E020053
S21401526080B582B000AF0200FB1D1A70074AFB1D15
S2140152701B7819001F230B40012199400B001900D0
S2140152808023D150C046BD4602B080BD00E100E09B
S21401529080B584B000AF78607B681B68FB60FB68F4
S2140152A0DB69072213405A1E9341DBB21800BD4644
S2140152B004B080BD80B582B000AF7860C0467B6820
S2140152C01800044B9847031EF9D1C046BD4602B0EC
S2140152D080BDC0469152010080B584B000AF7860B1
S2140152E07B681B68FB607B681B6818000D4B984742
S2140152F0030018000C4B98477B6818000B4B984727
S214015300FB6883221A75FB6883221A76FB681B6882
S214015310022293431A00FB681A60C046BD4604B0D9
S21401532080BDC046BD52020061520100B552010067
S214015330F0B597B000AF786139610023FB630023B5
S2140153403B650023FB643B2310229446BC44634424
S21401535000221A707B691B68BB637B691B687B63D1
S21401536023231022BA18D4187B6B1800C04B984719
S214015370030023700C2310229446BC446344180097
S214015380BC4B98473B69DB697B643B691B6A3B64A2
S2140153907B6C002B06D17B6B00211800B64B98471F
S2140153A003007B647B6CDAB20C2310218C46BC4470
S2140153B063441A700C2310229446BC4463440222B0
S2140153C05A707B6C1B0CDBB20C2210218C46BC4441
S2140153D0624411001800A94B98473B6C002B06D17C
S2140153E07B6B01211800A44B984703003B643B6C80
S2140153F0DAB20C2310218C46BC4463441A700C2389
S21401540010229446BC44634402225A703B6C1B0C27
S214015410DBB20C2210218C46BC44624411001800F9
S214015420964B98473B699A8A7B69DA803B69DA8AA8
S2140154307B691A813B691B7E002B03D1904B9847F1
S214015440031E02D080237B6501E000237B653B6958
S2140154501B69002B04D03B691B697A6D13437B657E
S2140154603B699B687A6D13437B653B6924229B5C91
S214015470002B04D07B6D8022D20513437B653B69EC
S2140154809B6A002B04D03B699B6A7A6D13437B654C
S2140154903B692C229B5C002B05D13B699A688023D3
S2140154A09B049A4204D17B6D8022120513437B65CF
S2140154B03B692D229B5C002B04D07B6D802212045D
S2140154C013437B653B692E229B5C002B04D07B6DCE
S2140154D08022D20313437B65BB6B1A687B6D1A432C
S2140154E0BB6B1A60BB6B802252005A6023231022CA
S2140154F09446BC4463441B781433DBB21800614BFA
S21401550098470300FB623B691B68FA2292005343EB
S214015510BB623B695B68FA22920053437B623B693C
S2140155201B8E3B62584BF86A984705000E00564B97
S214015530B86A9847B860F960534BF86A9847534C75
S214015540534A544BA04703000C003B607C604E4B13
S214015550386A984702000B004C4C38687968A047B7
S21401556003000C00180021004B4C00224B4BA047B7
S21401557003000C001A002300444CB868F968A047E1
S21401558003000C001A002300454C28003100A047F8
S21401559003000C001D002600BB6A5A003A4B10009F
S2140155A0984702000B003C4C28003100A04703003E
S2140155B00C00180021003A4C00223A4BA047030089
S2140155C00C001D002600BB6A5A002F4B100098479E
S2140155D002000B00344C28003100A04703000C00E9
S2140155E019002200314B0800110098470300FB63A5
S2140155F03B699A6880239B049A426AD1224BF86AD7
S2140156009847254C02000B00A04703000C001D0024
S21401561026001D4B786A98471C4C0022244BA04755
S21401562003000C001A0023001F4C28003100A0477D
S21401563003000C0018002100194C0022194BA0474A
S21401564003000C0019002200184B080011009847AF
S2140156500300FB64FB6C002B2ED0164B796AF86AAC
S214015660984703009A1EFB6CD31A3B6531E0C0468F
S214015670ED510200F151010031500200DD7D0200C2
S21401568019520100A17B020045200300B11403005A
S21401569095D626E80B2E113E29080300000024406B
S2140156A0B11903000000F03F490E0300DD1F03009F
S2140156B000000840E90403007B6A5A00FB6AD3181D
S2140156C05A1E7B6A59001D4B100098470300013B88
S2140156D03B65FB6BFF2B08DCFB6B002B05DB3B6D97
S2140156E0FF2B02DC3B6D002B06DA3B23102294468F
S2140156F0BC44634440221A703B2310229446BC44A7
S21401570063441B78402B0ED0FB6BFF221A403B6D87
S2140157101B041900FF231B040B401343FA6C1206EB
S2140157201A43BB6BDA603B2310229446BC446344A5
S2140157301B781800BD4617B0F0BDC046E90403004B
S21401574090B58BB000AFF860B9607A60FB68BA6854
S2140157501A60FB681B687B62FB681B6818003B4B82
S214015760984703003B623B6A0233FB613B6A143392
S214015770BB610122FB699A40130019000220344BD9
S21401578098471423FB181800324B98477B681A7BFE
S2140157901423FB181A70BB69DBB21422BA18110065
S2140157A018002D4B9847BB69DBB218002B4B984766
S2140157B07B681B7B00211800294B98477B6A1B6876
S2140157C00222134001D01C233BE07B6A1B680122A6
S2140157D0134001D0052334E0FB681B681722BC1870
S2140157E018001A4B9847030023701E4A1723FB180C
S2140157F01B78110018001C4B98471723FB181A78C2
S2140158001A4B9200F968D150FB6800221A76FB68A1
S21401581000225A76FB6800225A83FB6800229A838C
S214015820FB68252200219954FB6800221A627B6AD4
S21401583014221A607A68FB68110018000C4B98470E
S21401584003001800BD460BB090BDC046ED510200E6
S214015850955101007D5101007D7A0200C17A020056
S214015860A54F0200352A010051520200785500204A
S2140158703153010080B584B000AF78607B681B6847
S214015880FB607B6818000F4B98477B6818000E4B2F
S21401589098470E4B98477B681B6818000C4B984737
S2140158A0030018000B4B98470B4B98477B68180072
S2140158B0044B9847FB6801221A60C046BD4604B0F7
S2140158C080BDC046B5520100D952010039520100CF
S2140158D0BD520200F97B02004D52010080B584B032
S2140158E000AF78607B681B68BB600E23FB18002244
S2140158F01A800FE00E23FB180E22BA181288013206
S2140159001A807B681B890E22BA1812889A4201D324
S21401591012230EE0BB681B7EDBB21A000123134084
S21401592006D1BB681B7EDBB21A0002231340E1D00E
S21401593000231800BD4604B080BD000090B585B0B8
S21401594000AF78600A00FB1C1A707B681B68FB605E
S214015950FB685B688022D2021A43FB685A60FB1C14
S2140159601A78FB685A620B23FC187B681800074BF1
S214015970984703002370FB6801221A760B23FB1855
S2140159801B781800BD4605B090BDC046DD58010025
S21401599080B500AF0020024B9847C046BD4680BD8B
S2140159A0CD59010080B500AF0120024B9847C04693
S2140159B0BD4680BDCD59010080B500AF0220024B27
S2140159C09847C046BD4680BDCD59010080B584B01C
S2140159D000AF0200FB1D1A70FB1D1A78284B9200BF
S2140159E0D358FB60FB681B689B7BDBB2FA68127EB0
S2140159F01340DAB2FB68597E0B23FB180A401A7073
S214015A000B23FB181B780122134008D0FB689B6808
S214015A10FA6810009847FB681B6801229A730B23EB
S214015A20FB181B780222134008D0FB68DB68FA6873
S214015A3010009847FB681B6802229A730B23FB1819
S214015A401B781022134008D0FB681B69FA68100007
S214015A509847FB681B6810229A730B23FB181B7868
S214015A602022134008D0FB685B69FA68100098474B
S214015A70FB681B6820229A73C046BD4604B080BDF1
S214015A806043002080B584B000AF78600023FB60DF
S214015A907B68002B01D172B6FEE70820114B9847B0
S214015AA00300BB60BB68002B01D172B6FEE7BB6882
S214015AB0002B12D00C4B9847BB687A681A60BB68FB
S214015AC000225A60094B1B68BA685A60074BBA68CD
S214015AD01A60074B98470123FB60FB681800BD4618
S214015AE004B080BD917E0100597D0100E0000020D8
S214015AF07D7D010080B588B000AFF860B9607A603E
S214015B000123FB613D4B1B68002B44D13B4B3C4AB8
S214015B101A603AE0394B1B681B681B68BB61BB699E
S214015B201800384B984703007B61FA687B69D318E5
S214015B301B78202B05D0FA687B69D3181B78002BBD
S214015B401ED17A69B969FB6818002F4B9847031E66
S214015B5016D12A4B1B681B681B7B5BB2002B19DB1B
S214015B60FB681800294B984703001A00234B1B6853
S214015B701B681B7B5BB29A420CD00023FB6109E0D9
S214015B801E4B1B685A681D4B1A601C4B1B68002B6A
S214015B90C0D100E0C046194B1B68002B0CD0FB6936
S214015BA0002B09D17A681A49BB681800194B984727
S214015BB0124B00221A601CE0104B1B68002B10D001
S214015BC00E4B1B681B689B68FA687968B86898472B
S214015BD00300FB61FB69002B0BD1084B00221A6006
S214015BE007E07A680C49BB6818000A4B98470023FF
S214015BF0FB61FB691800BD4608B080BD140B002090
S214015C00D80000205B250300692503007D5C0100A8
S214015C10F44103008B2503004C42030080B586B097
S214015C2000AFF860B9607A60114B1B68002B02D197
S214015C300F4B104A1A600E4B1B681B685968BA68EE
S214015C40FB6818000C4B9847094B1B685A68084BB1
S214015C501A60074B1B68002B02D100237B6101E011
S214015C6001237B617B691800BD4606B080BDC04636
S214015C70180B0020D80000208B25030080B584B0C7
S214015C8000AF78600F23FB1800221A700023BB6058
S214015C9018E07B681B78202B0FD1BB68012B0ED038
S214015CA00F23FB181B785BB2DBB20133DAB20F238A
S214015CB0FB181A700123BB6001E00023BB607B6800
S214015CC001337B607B681B78002BE2D1BB68012B1C
S214015CD009D10F23FB181B785BB2DBB2013BDAB2AA
S214015CE00F23FB181A700F23FB181B785BB21800E2
S214015CF0BD4604B080BD000080B582B000AF7860BC
S214015D007B681800034B984703001800BD4602B095
S214015D1080BDC046B994010080B582B000AF7860FE
S214015D207B681800034B984703001800BD4602B075
S214015D3080BDC046E594010080B582B000AF7860B2
S214015D407B681800034B984703009BB21800BD46BA
S214015D5002B080BD15A8010080B582B000AF7860A2
S214015D607B681800044B984703001B0C9BB2180075
S214015D70BD4602B080BDC04615A8010080B582B000
S214015D8000AF78600A00BB1C1A807B681800084BBD
S214015D90984703001B0C1A04BB1C1B881A437B681C
S214015DA011001800034B9847C046BD4602B080BD9F
S214015DB015A801003DA8010080B582B000AF78604B
S214015DC00A00BB1C1A807B681800094B9847030021
S214015DD01B041A0CBB1C1B881B041A437B6811008E
S214015DE01800044B9847C046BD4602B080BDC04669
S214015DF015A801003DA8010080B582B000AF78600B
S214015E007B681800034B984703009BB21800BD46F9
S214015E1002B080BDF95C010080B582B000AF786049
S214015E207B681800044B984703001B0C9BB21800B4
S214015E30BD4602B080BDC046F95C010080B582B0A7
S214015E4000AF78600A00BB1C1A807B681800084BFC
S214015E50984703001B0C1A04BB1C1B881A437B685B
S214015E6011001800034B9847C046BD4602B080BDDE
S214015E70F95C0100CD94010080B582B000AF786076
S214015E800A00BB1C1A807B681800094B9847030060
S214015E901B041A0CBB1C1B881B041A437B681100CD
S214015EA01800044B9847C046BD4602B080BDC046A8
S214015EB0F95C0100CD94010080B584B000AF786034
S214015EC00023FB600023BB6018E0144BBA68D200C5
S214015ED0D358002B0FD1114BBA68D2007968D15034
S214015EE00E4ABB68DB00D3180433012252421A6003
S214015EF00123FB6005E0BB680133BB60BB68092B6F
S214015F00E3DDFB68002B04D1054B1B685A1C044BD0
S214015F101A60C046BD4604B080BDC046200B0020B6
S214015F20700B002090B585B000AF0023FB602B4BB3
S214015F301B68BB60294B1A68294BD200D358002B2B
S214015F4035D0264B1A68264BD200D3581800254B5D
S214015F50984703007B60214B1B68214ADB00D3185E
S214015F6004331A687B689A4207D91C4B1B681C4A83
S214015F70DB00D31804337A681A60184B1A68184B7A
S214015F80D200D3581800184B98470300DBB219000B
S214015F90124B1B68124ADB00D31804331B680A0035
S214015FA00321EA20114CA047FB680133FB600B4B31
S214015FB01B685A1C0E4B0A21100098470B001A004A
S214015FC0064B1A60FB68002B04DC044B1A68BB689E
S214015FD09A42AFD1C046BD4605B090BD740B0020B5
S214015FE0200B0020B5A90100395D01008168010080
S214015FF0C907030080B500AF024B9847030018009D
S214016000BD4680BD61AA010090B585B002AF78603B
S214016010144B98477B68012B02D1134B98470EE02F
S2140160207B68022B04D1114B1800114B984706E0F0
S2140160307B68002B03D00F4B18000D4B98470E4B77
S2140160401B68002B09D10D490D480B4B0193042306
S21401605000930023C8220B4CA047C046BD4603B0A0
S21401606090BDC0464D6F0100A5640100AC4203001F
S214016070F5750100EC4203001C0B002020430300D1
S21401608089600100B999010080B582B000AF7860DF
S214016090044B9847031E01D0034B98470420034B3B
S2140160A09847F5E7E9640100255F0100559D010069
S2140160B080B500AF604B1B680922DA655E4B1B6832
S2140160C064220A2199545C4B1B6865220A21995463
S2140160D0594B1B6866220A219954574B1B68672245
S2140160E00F219954544B1B68682205219954524B31
S2140160F01B686922052199544F4B1B686A220521AA
S21401610099544D4B1B686B22052199544A4B1B68C9
S2140161106C2205219954484B1B6870220F21995413
S214016120454B1B6871220F219954434B1B68722201
S2140161300F219954404B1B6873220F2199543E4BF3
S2140161401B6874220F2199543B4B1B6875220F2143
S2140161509954394B1B6876220F219954364B1B688C
S21401616077220F219954344B1B6878220F219954BA
S214016170314B1B687C22102199542F4B1B687D22C2
S214016180102199542C4B1B687E22102199542A4BBE
S2140161901B687F2213219954274B1B6880221121EB
S2140161A09954254B1B68812210219954224B1B6858
S2140161B0822213219954204B1B6883221321995460
S2140161C01D4B1B688422132199541B4B1B68882284
S2140161D000219952184B1B688A22A0219952164B0E
S2140161E01B688C22A02149009952134B1B688E22F2
S2140161F0F02149009952104B1B6890220F49995281
S2140162000D4B1B6892220E4999520B4B1B68942228
S2140162100C499952084B1B6896220B499952064B1A
S2140162201B6898228C21C9009952034B1B68074AA8
S2140162301A66C046BD4680BD340C0020FD02000033
S21401624052030000A203000001040000BF04000086
S21401625080B500AF2E4B00225A822D4B5A8A2C4B0A
S2140162601A802B4B0A229A82294B9A8A284B5A80EB
S214016270274B1422DA82264BDA8A254B9A80244B46
S2140162801E221A83224B1A8B214BDA80204B2D2299
S2140162905A831F4B5A8B1E4B1A811D4B32229A83EF
S2140162A01B4B9A8B1A4B5A81194B3722DA83184BA0
S2140162B0DA8B174B9A81164B3C221A84144B1A8C94
S2140162C0134BDA81124B41225A84114B5A8C104BD4
S2140162D01A820F4B09229A840D4B1322DA840C4B37
S2140162E01D221A850A4B2C225A85094B31229A8582
S2140162F0074B3622DA85064B3B221A86044B402290
S2140163005A86034B45229A86C046BD4680BDC04686
S214016310A40B002080B582B000AF0200FB1D1A70EE
S214016320FB1D1B78082B16D89A000D4BD3181B683B
S2140163309F460C4B10E00C4B0EE00C4B0CE00C4B4C
S2140163400AE00C4B08E00C4B06E00C4B04E00C4B4F
S21401635002E00C4B00E00C4B1800BD4602B080BDBD
S214016360284603002843030070430300B843030094
S2140163700C44030058440300A4440300F044030003
S214016380444503009C450300F845030090B587B0DB
S21401639000AF1723FB1800221A70364B1B68002B20
S2140163A00BD1344B1B68002B05D1334B1800334BF4
S2140163B09847002359E0002357E02E4B1B681B6BC0
S2140163C0012B01D1012350E02D4B1B68002B49D135
S2140163D0EFF31083BB60BB683B610123FB60FB6886
S2140163E083F31088274B1B685A1C264B1A60214BD7
S2140163F01B6801221A63244B984703001800234B9D
S214016400984703001A001723FB181A701723FB1866
S2140164101B78002B16D11723FC1803201C4B98471A
S214016420030023701B4A1723FB181B78190003204F
S214016430194B98471723FB181B78002219000320D5
S214016440164B98471723FB181B781800144B9847D0
S2140164500C4B1B685A1E0B4B1A603B697B607B68B2
S21401646083F31088034B1B681B6B1800BD4607B0EF
S21401647090BDC046340C00204C460300F575010063
S214016480940B00208C0B0020F55F0100395D0100A4
S214016490D972010090460300097501006D6C010078
S2140164A0556B010080B500AF024B9847C046BD460C
S2140164B080BDC0468D63010080B500AF084B1B68E8
S2140164C0002B03D0064B1B6800221A63054B1B6882
S2140164D0002B02D0034B1B689847C046BD4680BDC3
S2140164E0340C00209C0B002080B500AF054B1B68C8
S2140164F0002B03D0034B1B681B6B00E00023180026
S214016500BD4680BD340C002090B589B000AF0200B6
S214016510FB1D1A70FB1D1B78002B57D02E4B1B68DA
S214016520002B55D0FB1D1B780F2B04D92B4B1800C5
S2140165302B4B98474DE02B4B1B68002B04D02A4B66
S2140165401800274B984744E0EFF31083FB60FB6885
S214016550FB6101233B613B6983F31088214B1B6878
S2140165605A1C204B1A60214B1B681B6B002B22D038
S2140165701A23FC181E4B18001E4B98470300238055
S2140165801923FB18FA1D12781A701B4B9847030043
S2140165907B617B69002B0ED07B6902221A707B69B6
S2140165A01A22BA1812885A807B691922BA181278E8
S2140165B05A70124B98470B4B1B685A1E094B1A60B0
S2140165C0FB69BB60BB6883F3108802E0C04600E04D
S2140165D0C046BD4609B090BDEC000020F849030056
S2140165E0F57501008C0B0020384A0300340C00209E
S2140165F0FFFF000009780100AD710100B1770100CD
S21401660080B58EB000AFF860B9607A60484B1B6801
S214016610002B00D188E07B68002B03DA7B685B42A5
S2140166207B6301E07B687B63EFF31083BB61BB692F
S2140166303B630123FB61FB6983F310883D4B1B68B9
S2140166405A1C3C4B1A60BB68002B05D03A4B1A68A3
S2140166507B68D218384B1A60354B1B681B6B002BB6
S21401666057D0FF20354B984703001A002F23FB18FD
S2140166701A707B6B324A19001000324B98470200A1
S2140166802C23FB181A80304B98470300BB62BB6A69
S214016690002B3ED0BB6A2F22BA1812785A70BB6AFA
S2140166A000221A70BB6A2C22BA1812885A80274B0D
S2140166B09847BB68224A19001000224B98470200EF
S2140166C02623FB181A802523FB1800221A701E4B5E
S2140166D0984703003B623B6A002B1AD03B6A26228E
S2140166E0BA1812885A803B6A2522BA1812785A704C
S2140166F0FB68DBB20133DAB23B6A1A70FB68DAB2C6
S214016700BB6A1A70114B9847094B1B680A4A1268F4
S2140167101A65084B1B685A1E064B1A603B6B7B6159
S2140167207B6983F3108800E0C046BD460EB080BD8D
S214016730340C00208C0B0020A00B002009780100EF
S214016740FFFF0000CD690100AD710100B1770100C6
S21401675090B58BB000AFF8607A600B23FB180A1C6B
S2140167601A70FB68FE2B04D9394B1800394B984731
S2140167706BE00B23FB181B78082B04D9364B18004B
S214016780344B984761E0354B1A680B23FB181B788E
S2140167906421D3185B181B781A007B689A4204D2CE
S2140167A02F4B18002B4B98474FE02E4B1B68002BA6
S2140167B004D02D4B1800274B984746E02B4B1B78EF
S2140167C0002B41D0EFF310837B617B697B62012351
S2140167D0BB61BB6983F31088224B1B685A1C214B93
S2140167E01A601E4B1B681B6B002B22D02223FC1841
S2140167F01F4B18001F4B9847030023802123FB18CB
S2140168007A681A701C4B98470300FB61FB69002BE2
S2140168100FD0FB692222BA1812885A80FB68DAB2B6
S214016820FB691A70FB692122BA1812785A70134B49
S21401683098470C4B1B685A1E0A4B1A607B6A3B61D1
S2140168403B6983F3108800E0C046BD460BB090BD9F
S214016850A84A0300F5750100E04A0300340C002045
S214016860284B03008C0B0020704B0300980B002074
S214016870FFFF000009780100AD710100B17701004A
S21401688080B58AB000AFF8607A603B600B23FB18D6
S2140168900A1C1A70FB68FE2B04D9404B1800404BAB
S2140168A0984777E00B23FB181B78082B04D93D4B40
S2140168B018003B4B98476DE03B4B1A680B23FB18BF
S2140168C01B786421D3185B181B781A007B689A42E0
S2140168D004D2364B1800324B98475BE0344B1B68AA
S2140168E0002B04D0334B18002D4B984752E0EFF3A2
S2140168F010837B617B697B620123BB61BB6983F388
S21401690010882B4B1B685A1C294B1A60264B1B6898
S2140169101B6B002B34D0284B1B78002B30D0FF206C
S214016920264B984703001A002323FB181A703B686E
S2140169301900FF20224B984702002223FB181A70E9
S2140169402123FB187A681A701E4B98470300FB61D7
S214016950FB69002B14D0FB692322BA181278DA706F
S214016960FB68DAB2FB691A70FB692122BA18127841
S2140169705A70FB692222BA1812789A70124B9847FD
S2140169800B4B1B685A1E0A4B1A607B6A3B613B69BC
S21401699083F31088BD460AB080BDC046A84B0300ED
S2140169A0F5750100E84B0300340C0020384C030059
S2140169B08C0B0020884C0300980B002009780100FE
S2140169C0CD690100AD710100B177010080B584B0D9
S2140169D000AF786039607B68FF2B09D07B68194A65
S2140169E0934205D0184B1800184B98473B6824E093
S2140169F03A687B689A4201D83B681EE0144B984778
S214016A000300FB60FB68002B14D0FB6801221A70A0
S214016A107B68DB433A6813401B0ADAB2FB685A709C
S214016A207B68DB433A6813401B0C9AB2FB685A80BA
S214016A30084B98473B687A6813401800BD4604B077
S214016A4080BDC046FFFF0000C04C0300F575010085
S214016A50AD710100B177010080B58AB000AF7860F2
S214016A6039602623FB1800221A807B68FE2B04D986
S214016A702D4B18002D4B984753E02D4B1B68002BD0
S214016A8004D02C4B1800294B98474AE0EFF31083AB
S214016A903B613B693B6201237B617B6983F3108821
S214016AA0234B1B685A1C224B1A60234B1B681B6B1B
S214016AB0002B2CD0214B1B78002B28D0FF20204BFD
S214016AC0984703001A001F23FB181A703B681D4ADB
S214016AD0190010001C4B984702002623FB181A8049
S214016AE01A4B98470300BB61BB69002B0FD0BB69EB
S214016AF01F22BA1812785A707B68DAB2BB691A700C
S214016B00BB692622BA1812885A80114B9847084B3F
S214016B101B685A1E064B1A603B6AFB60FB6883F3D0
S214016B201088BD460AB080BDFC4C0300F575010017
S214016B308C0B0020544D0300340C0020980B0020D1
S214016B4009780100FFFF0000CD690100AD71010069
S214016B50B177010090B589B000AF0200FB1D1A7035
S214016B60FB1D1B780F2B04D9344B1800344B984768
S214016B7061E0EFF31083FB60FB68FB6101233B617F
S214016B803B6983F310882F4B1B685A1C2D4B1A60E8
S214016B902D4B1B78FA1D12789A4242D02B4B1B685C
S214016BA01B6B002B3DD02A4B00221A601A23FC18BF
S214016BB0284B1800284B984703002380224BFA1DC8
S214016BC012781A701923FB181F4A12781A70234B71
S214016BD0984703007B617B69002B22D01A4B1B78F8
S214016BE0190003201E4B98470300012B03D17B6934
S214016BF007221A7002E07B6906221A707B691A2244
S214016C00BA1812885A807B691922BA1812785A70F3
S214016C100D4B1B78012219000320124B9847124B8B
S214016C209847084B1B685A1E064B1A60FB69BB60E7
S214016C30BB6883F31088BD4609B090BD8C4D030038
S214016C40F57501008C0B0020980B0020340C0020F9
S214016C50780B0020FFFF000009780100AD710100EC
S214016C60516E0100AD6D0100B177010090B583B0A2
S214016C7000AF040008001100FB1D221C1A70BB1D8A
S214016C80021C1A707B1D0A1C1A70FB1D1B78082B30
S214016C9004D91A4B18001A4B98472CE0194B1A685E
S214016CA0FB1D1B786421D3185B181B78BA1D12785C
S214016CB09A4204D9144B1800114B98471BE0114B0C
S214016CC01C68FB1D1A78BB1D1B78110018000F4BA2
S214016CD09847030018000B4B1A68FB1D1B787021A0
S214016CE0D3185B181B78C31801339C22E3189B1832
S214016CF07A1D12781A70BD4603B090BD204F03006E
S214016D00F5750100340C00206C4F03000172010080
S214016D1090B583B000AF0200FB1D1A70BB1D0A1CA4
S214016D201A70FB1D1B78082B05D91B4B18001B4B33
S214016D30984700232BE01A4B1A68FB1D1B78642129
S214016D40D3185B181B78BA1D12789A4205D9154BD1
S214016D501800124B9847002319E0114B1C68FB1DC5
S214016D601A78BB1D1B78110018000F4B98470300BB
S214016D7018000B4B1A68FB1D1B787021D3185B1883
S214016D801B78C31801339C22E3189B181B78180044
S214016D90BD4603B090BDC046AC4F0300F57501007B
S214016DA0340C0020F84F03000172010090B583B047
S214016DB000AF040008001100FB1D221C1A70BB1D49
S214016DC0021C1A707B1D0A1C1A70FB1D1B78082BEF
S214016DD004D91A4B18001A4B98472BE0194B1A681E
S214016DE0FB1D1B786421D3185B181B78BA1D12781B
S214016DF09A4204D9144B1800114B98471AE0114BCC
S214016E001C68FB1D1A78BB1D1B78110018000F4B60
S214016E109847030018000B4B1A68FB1D1B7870215E
S214016E20D3185B181B78C3189C22E3189B187A1D8D
S214016E3012781A70BD4603B090BDC04638500300A4
S214016E40F5750100340C00207C500300017201002E
S214016E5090B583B000AF0200FB1D1A70BB1D0A1C63
S214016E601A70FB1D1B78082B05D91A4B18001A4BF4
S214016E70984700232AE0194B1A68FB1D1B786421EA
S214016E80D3185B181B78BA1D12789A4205D9144B91
S214016E901800114B9847002318E0104B1C68FB1D87
S214016EA01A78BB1D1B78110018000E4B984703007B
S214016EB018000A4B1A68FB1D1B787021D3185B1843
S214016EC01B78C3189C22E3189B181B781800BD4634
S214016ED003B090BDB8500300F5750100340C0020D6
S214016EE0FC5003000172010090B583B000AF0200B0
S214016EF0FB1D1A70114B1B6867229B5CFA1D1278EA
S214016F009A4204D90E4B18000E4B984713E00B4BD0
S214016F101C68FB1D1B78032118000B4B98470300C8
S214016F201900064B1B6873229B5CCB189C22E31846
S214016F309B1800221A70BD4603B090BD340C002089
S214016F4038510300F57501000172010080B500AFEC
S214016F50754B1B68002B03D1734B744A1A6006E00D
S214016F60714B1B681B78DBB2012B00D1D8E0704B4C
S214016F701A68704B1A606C4B1868BD231B011A0007
S214016F8000216D4B9847684B1B686C4A9A81664B8B
S214016F901B6805229A73644B1B680022DA73624BE6
S214016FA01B68BD2212011A615F4B1B6896225200B4
S214016FB09A615D4B1B68624A5A655B4B1B680022EF
S214016FC09A65594B1B6800225A635E4B9847564B8D
S214016FD01B685D4A5D499950534B1A68AC23DB0028
S214016FE0C821D150504B1B68594A012199504E4B2C
S214016FF01A68D723DB005749D1504B4B1B68564ABA
S21401700094466344554950221800554B9847464BC1
S2140170101B68544A54499950434B1B68534A0A21EA
S2140170209954414B1B68524A0B2199543E4B1B689D
S214017030504A0C2199543C4B1B684F4A0D219954D8
S214017040394B1B684D4A71219954374B1B684C4A82
S21401705072219954344B1B684A4A73219954324B16
S2140170601B68494A742199542F4B1B68474AF121E2
S21401707099542D4B1B68464AF22199542A4B1B689A
S214017080444AF3219954284B1B68434AF4219954E6
S214017090424B9847244B1B68F422DA72224B1B683A
S2140170A0F3229A72204B1B68F2225A721E4B1B68FF
S2140170B0F1221A721C4B1B687422DA711A4B1B6878
S2140170C073229A71184B1B6872225A71164B1B68F1
S2140170D071221A71144B1B680422DA70124B1B685A
S2140170E003229A70104B1B6802225A700E4B1B68C3
S2140170F001221A702A4B1B68002B12D00A4B1B6800
S214017100154A9818264B1B6850221900144B9847AD
S214017110054B1B68234A01219950234B984700E0F1
S214017120C046BD4680BDC046340C00206C430020DE
S21401713018E000E03C4F0020A3210300A11A000044
S214017140F0F0F0F0B16001005C050000F1F1F1F142
S21401715064050000F2F2F2F2BC0600008051030062
S214017160C17401000C070000F3F3F3F3C40B000035
S214017170C50B0000C60B0000C70B0000C80B0000C3
S214017180C90B0000CA0B0000CB0B0000CC0B0000A3
S214017190CD0B0000CE0B0000CF0B000051620100AA
S2140171A0940B0020B4060000B964010080B500AF5E
S2140171B0104B1B681B6B002B01D1002317E00D4BF6
S2140171C01B68DA692C23FF339A4205D90A4B18004B
S2140171D00A4B984700230AE0064B1A68054B1B68C2
S2140171E0DB699B00E221C9008C466344D318180072
S2140171F0BD4680BD340C002094510300F575010096
S21401720080B582B000AF0200FB1D1A70BB1D0A1CC0
S2140172101A70BB1D1B78082B05D92A4B18002A4B60
S2140172209847002349E0FB1D1B78002B0BD0274B0A
S2140172301A68BB1D1B786421D3185B181B78FA1DCE
S21401724012789A4205D9224B18001F4B9847002303
S21401725033E0BB1D1B78082B2AD8FB1D1B78002B9F
S21401726026D01A4B1A68BB1D1B786421D3185B18ED
S2140172701B78FA1D12789A421AD8144B1A68BB1D4D
S2140172801B7840335B00D31808331A880F4B1968F4
S214017290BB1D1B787C20CB181B181B789BB2F91DD5
S2140172A00978013989B24B439BB2D3189BB204E0EB
S2140172B0084B1800044B984700231800BD4602B03F
S2140172C080BDC046BC510300F5750100340C00209A
S2140172D0FC5103003C52030080B588B000AF0200A9
S2140172E0FB1D1A705A4B1B68002B05D1594B180011
S2140172F0594B98470023A7E0FB1D1B78082B05D99F
S214017300564B1800544B984700239DE0EFF310832B
S214017310FB60FB68BB6101233B613B6983F310881B
S2140173204F4B1B685A1C4E4B1A60FB1D1A784D4B6F
S2140173305200D35A1A004C4B1A604B4B1B68494AF1
S2140173404821D3185B181B78002B17D1464B1A68B7
S214017350454B1B68D9B2FB1D1B78424808335B00BE
S214017360C31802331B88DBB2CB1ADBB20133D8B2A7
S2140173703C4B48219B185B18021C1A703A4B1A6842
S2140173801F23FB18374948208A18121812781A70DA
S214017390FB1D1A78334B5200D25AFB1D1B7831491C
S2140173A010335B00CB1804331B889A420DD9FB1DA2
S2140173B01B7818002D4B984703001800264B98475A
S2140173C01F23FB1800221A7031E0FB1D1B78254A8B
S2140173D059008A5A013291B2224A5B009952FB1D2A
S2140173E01A78204B5200D35A1900FB1D1B781D4AF0
S2140173F008335B00D31802331B88CB1A7B61FB1D55
S2140174001B78184A18335B00D31806331B881A00FA
S2140174107B699A420BDAFB1D1B787A69D2B291B26C
S214017420104A18335B00D31806330A1C1A800C4B1B
S2140174301B685A1E0A4B1A60BB69BB60BB6883F3A4
S21401744010881F23FB181B781800BD4608B080BDA6
S214017450340C00209C460300F57501007C520300A5
S2140174608C0B0020A40B0020380C002015630100B3
S21401747090B585B000AF0200FB1D1A70BB1D0A1C3B
S2140174801A700E23FC18FB1D1A78BB1D1B78110001
S2140174901800094B984703002380084B1A680E23EF
S2140174A0FB181B889C21D3185B1801221A70C04652
S2140174B0BD4605B090BDC04601720100340C0020E7
S2140174C080B586B000AFF860B9607A6000237B6152
S2140174D010E0FA687B69D318B9687A698A18127855
S2140174E01A70BA687B69D3181B78002B07D07B69A2
S2140174F001337B617A697B689A42EAD300E0C04631
S214017500C046BD4606B080BD80B582B000AF3A60C9
S214017510FB1D021C1A70BB1D0A1C1A703B68002B4F
S21401752004D12A4B18002A4B98474BE0FB1D1B78C9
S214017530082B04D9274B1800254B984742E0BB1D62
S2140175401B78002B04D1244B1800214B984739E0B7
S214017550224B1A68FB1D1B786421D3185B181B7815
S214017560BA1D12789A4209D9FB1D1B7818001C4BCC
S214017570984703001800164B984723E0FB1D1A781E
S214017580BB1D1B7811001800164B984703001A0004
S214017590154B1A80154B1B68002B13D10F4B1A681D
S2140175A0114B1B889833D318181D0C4B1A68FB1DFA
S2140175B01B787021D3185B181B781A003B681900DA
S2140175C00B4B9847BD4602B080BDC04680530300B2
S2140175D0F5750100B4530300E4530300340C002096
S2140175E015630100017201003C0C0020940B002081
S2140175F0C174010080B582B000AF7860114B1B6882
S214017600002B01D0104B9847104B1B68002B15D14F
S2140176100E4B7A681A600B4B1B68002B0ED0094B79
S2140176201B680B4A9818094B1B6850221900094B16
S2140176309847044B1B68084A01219950C046BD462D
S21401764002B080BD340C0020B9640100940B002008
S214017650BC060000C1740100B406000080B586B007
S21401766000AF0200FB1D1A7000237B6100233B6103
S214017670FB1D1B78002B00D089E0494B1800494BB5
S21401768098478AE0484B1B68DA697B69D3183B61E7
S214017690454B19683B699A00E223DB008A18D31828
S2140176A01B78982B34D9404B19683B699A00E22322
S2140176B0DB008A18D3181B78A72B29D83A4B1968F0
S2140176C03B699A00E223DB008A18D3181A780F2345
S2140176D0FB1868321A700F23FB181A783B69D21808
S2140176E0314B1B689B699A424DD22F4B1A683B69F6
S2140176F09B00E221C9008C466344D0180F23FB1877
S2140177001B7801339B001A000021284B98473AE06A
S214017710254B19683B699A00E223DB008A18D318C7
S2140177201B78012B30D13B695A1C1F4B1B689B6988
S2140177309A420ED21C4B1A683B699B00E221C90093
S2140177408C466344D318082200211800174B98472B
S2140177501AE0154B1B68E222D200944663440422C9
S21401776000211800114B98470F4B1A683B699B0084
S214017770E221C9008C466344D31804220021180074
S2140177800A4B984700E0C0467B6901337B61FB1DCD
S2140177901A787B699A4200D974E7BD4606B080BD67
S2140177A044540300F5750100340C0020A3210300A6
S2140177B080B500AF124B1B681B6B002B1CD0104B07
S2140177C01B685A6901325A610D4B1B68DA6901322E
S2140177D0DA610B4B1B68DA692C23FF339A4207D90F
S2140177E0074B1B6801221A62054B1B680022DA61EF
S2140177F00120044B984700E0C046BD4680BDC04608
S214017800340C00205D760100B0B586B000AF0200F2
S214017810BB1D1A8000237B6100233B610023FB60B4
S214017820BB1D1B88FF2B0AD0BB1D1B88604A9342D9
S21401783005D0604B1800604B98470023B3E05F4BC0
S2140178401B685B6A002B18D15D4B1B68002B06D0AA
S2140178505A4B1B685A4A126892085A620DE0594BF5
S2140178601A68594B1B689A4207D0544B1C68002073
S214017870564B984703009B0863620C23FB181800BD
S214017880534B9847FA68534B1B68D31A3B61FA6807
S214017890504B1A60494B1B685B6A002B44D0474B20
S2140178A01B685A6A3B699A421ED2444B1C68434B7A
S2140178B01B68DD6A414B1B685A6A474B11003869E1
S2140178C098470300EB18E3623C4B1C683B4B1B6874
